:020000040800F2
:1000000018460020951400081D0600081F06000869
:1000100023060008270600082B0600080000000041
:100020000000000000000000000000002F06000893
:1000300031060008000000005BDD00086D130008B9
:10004000AF140008AF140008AF140008AF14000884
:10005000AF140008AF140008AF140008AF14000874
:10006000AF140008AF140008AF140008AF14000864
:10007000AF140008AF140008490F0008AD100008C5
:10008000AF140008AF140008AF140008AF14000844
:10009000AF140008AF140008AF140008AF14000834
:1000A000AF140008AF140008AF140008AF14000824
:1000B000AF1400086D090008AF140008AF14000861
:1000C000AF140008AF140008AF140008AF14000804
:1000D000AF140008D5110008AF140008AF140008D1
:1000E000AF140008AF140008AF140008AF140008E4
:1000F000AF140008AF140008AF140008AF140008D4
:10010000AF140008AF140008AF140008AF140008C3
:10011000AF140008AF140008AF140008AF140008B3
:10012000AF140008AF140008AF140008AF140008A3
:1001300000F002F800F090F80AA090E8000C824469
:100140008344AAF10107DA4501D100F085F8AFF246
:10015000090EBAE80F0013F0010F18BFFB1A43F0A5
:100160000103184718E4000038E40000103A24BFE7
:1001700078C878C1FAD8520724BF30C830C144BF0C
:1001800004680C607047000000230024002500264E
:10019000103A28BF78C1FBD8520728BF30C148BFEA
:1001A0000B6070476E290CF0E08470290DF04D80D3
:1001B00066290DF0A08765290DF09D8767290DF050
:1001C0009A876129AFF3008003681B0A28BF41F0BA
:1001D000800169290CF05A8364290CF05783752932
:1001E0000CF054836F290CF0DB8778290DF019800F
:1001F000E9290CF07587E4290CF07287F5290CF0D9
:100200006F87EF290CF0D887F8290DF01880036864
:10021000DB0928BF41F0800163290CF0F6867329C1
:100220000CF0FB86E3290DF0AF80F3290DF0B480CC
:10023000002070471FB50DF013F8040000200021C6
:100240000DF0EEFD401C6060002000210DF0D2FD9D
:10025000E0601FBD10B510BD0DF034F91146FFF779
:10026000E9FF00F01AF90DF05BF903B4FFF7F2FFB4
:1002700003BC01F057F800000EB53CE0C049C1488E
:1002800000680DF015FEBF490860084600680DF0D3
:10029000E3FD044622460B46BBA1C14800F0BAFC70
:1002A000B84800680DF0D8FD044622460B46B6A1BA
:1002B000BC4800F0AFFCB34800680DF0CDFD04462B
:1002C00022460B46B0A1B84800F0A4FCAD48006837
:1002D0000DF0C2FD044622460B46ABA1B34800F028
:1002E00099FC02A800214FF4FA730A46CDE90010E8
:1002F00008460BF064FAC1E70EB500BF0FE0AC484A
:100300000068C043AB49C1F8940102A800214FF432
:10031000FA730A46CDE9001008460BF050FAEEE7F2
:100320000EB500BF19E00020A349086002A8002113
:10033000C8230A46CDE9001008460BF040FA012018
:100340009E49C1F8940102A800214FF4FA730A46AD
:10035000CDE9001008460BF032FAE4E730B58BB077
:100360000446002500BF02F041FF0AA808F0B5FED0
:100370000AAA0121084604F03AFF00BF00BF00BFEF
:1003800003F06CF8054600BF00BF8D480078401CA4
:100390008B49087000BF00BF284603F063F800BF18
:1003A00000BF00BF0AA8032100220592CDE9062163
:1003B0000890104680210C22824BCDE90132CDE914
:1003C000031004200023AFF2A7027FA10090814810
:1003D00009F05AFA0AA8032100220592CDE9062164
:1003E0000890104680210C227B4BCDE90132CDE9EB
:1003F000031005200023AFF2FF0278A100907A4895
:1004000009F042FA0AA8032100220592CDE906214B
:100410000890104680210C22744BCDE90132CDE9C1
:10042000031006200023AFF2AF1271A100907448B0
:1004300009F02AFA0AA973480AF09BFD00BF00BF21
:1004400000BF03F00BF8054600BF00BF5C48007812
:10045000401E5B49087008460078A0B96A480088C9
:10046000002809DD00BF00BF284602F0FBFF00BFE7
:1004700000BF05F0A4FA0DE000BF00BF284602F05F
:10048000F1FF00BF06E000BF00BF284602F0EAFF10
:1004900000BF00BF00BF0BB030BD8AB0002400F029
:1004A00071FF4FF4A06001F015F80121084601F03A
:1004B0009FFD00F03FFD00F005FA09A804F068FC7C
:1004C00000BF00BF00BF02F0C9FF044600BF00BF6D
:1004D0003B480078401C3A49087000BF00BF2046E6
:1004E00002F0C0FF00BF00BF00BF09A80321002227
:1004F0000592CDE90621089010464FF40071332291
:10050000424BCDE90132CDE9031003200023AFF2C5
:10051000B3123FA100903B4809F0B6F900BF00BFFD
:1005200000BF02F09BFF044600BF00BF24480078D4
:10053000401E2349087008460078A0B93248008858
:10054000002809DD00BF00BF204602F08BFF00BF7E
:1005500000BF05F034FA0DE000BF00BF204602F0F6
:1005600081FF00BF06E000BF00BF204602F07AFF17
:1005700000BF00BF00BF09A804F0D9FE00BFFEE71E
:100580000AD7233C00000020666C6F61745F6E75B3
:100590006DB5C4D6B5CEAA3A20252E34660D0A0014
:1005A000003801400044004000480040004C00403A
:1005B0009401234200002342948121420080214281
:1005C000A8000020A00A00206C65643020746173CC
:1005D0006B000000D8090020680D00206C656431B4
:1005E000207461736B000000A00C0020301000200C
:1005F000666C6F61742074657374207461736B0032
:10060000680F0020100100206C000020D80100209D
:100610007374617274207461736B0000704700BF63
:10062000FEE700BFFEE700BFFEE700BFFEE7704742
:10063000704700000CB50020019000906C480068E5
:1006400040F480306A49086000BF6948006800F4DF
:10065000003000900198401C0190009818B9019852
:10066000B0F5A06FF1D16248006800F4003010B11D
:100670000120009001E0002000900098012843D163
:100680005C48006840F010005A490860084600685D
:1006900020F0030008600846006840F0020008608F
:1006A00053484068524948600846406848600846D8
:1006B000406840F4806048600846406820F47C1040
:1006C00048600846406840F4E81048600846006802
:1006D00040F08070086000BF4548006800F000707E
:1006E0000028F9D04248406820F0030040494860A3
:1006F0000846406840F00200486000BF3C4840683F
:1007000000F00C000828F9D10CBD10B5FFF792FFDE
:1007100010BD10B53648006840F00100344908604B
:100720000846406834490840314948600846006836
:10073000324908402E4908600846006820F48020AD
:1007400008600846406820F4FE0048604FF41F002F
:100750008860FFF7DAFF4FF000602949086010BD9C
:1007600010B5002100200022214B5B6803F00C0132
:1007700021B1042906D0082928D107E0214B224CB9
:10078000236027E01F4B204C236023E0184B5B685D
:1007900003F47010164B5B6803F48032022303EB02
:1007A000904022B9194B4343174C23600DE0104B86
:1007B0005B6803F4003323B1144B4343124C2360B2
:1007C00003E0104B4343104C236003E00D4B0E4CF1
:1007D000236000BF00BF064B5B68C3F303130C4CE0
:1007E000E15C094B1B68CB40074C236010BD000047
:1007F00000100240002002400000FFF8FFFFF6FE5C
:1008000008ED00E000127A000400002000093D001D
:10081000080000200021016041608160C1607047D4
:1008200010B501460A684B68D05C4A68521CCB6818
:10083000B2FBF3F403FB14224A6010BD0146886842
:10084000401CCA68B0FBF2F302FB13004A689042F6
:1008500001D1012070470020FCE730B504460D4669
:100860002046FFF7EBFF50B92068A1684554A06807
:10087000401CE168B0FBF1F201FB1200A06030BD4A
:10088000F0B507460D461646002400BF05E0295D79
:100890003846FFF7E2FF601C84B2B442F7DBF0BDDC
:1008A000014648688A68904201D1012070470020C3
:1008B000FCE78168491CC268B1FBF2F302FB13112B
:1008C0008160704708B50121482001F091FB20208C
:1008D000ADF8000010208DF8030003208DF8020011
:1008E0006946094800F0C4FE2021074800F06DFF6A
:1008F0002020ADF800006946044800F0B9FE202130
:10090000024800F062FF08BD000C014000180140E1
:100910007FB506460C4615460121022001F075FB05
:10092000ADF80840ADF804500020ADF80A00ADF86D
:10093000060001A9334801F093FC01221146314819
:1009400002F005F81D208DF8000000208DF8010050
:1009500003208DF8020001208DF80300684600F0A6
:10096000BEFD0121274801F0D7FF7FBD10B5012151
:10097000244802F09AFA18B10121224802F0A6FA9E
:1009800010BD30B589B005460C460121022001F0AA
:100990003CFB0121092001F02BFB01211A4800F04A
:1009A00038FF2020ADF8200018208DF82300032008
:1009B0008DF8220008A9154800F05AFEADF818502D
:1009C000ADF814400020ADF81A00ADF8160005A9E6
:1009D0000C4801F045FC7020ADF804000120ADF892
:1009E00006000020ADF80C0001A9064801F0B7FC94
:1009F0000821044802F0C9F80121024801F08CFFE7
:100A000009B030BD0004004000081A00000C01408D
:100A10002DE9F04104460E4615460027002D01DC65
:100A2000BDE8F081FE4884427CD12A463146FD482B
:100A3000FFF726FFFB48FFF701FF28B10120F94926
:100A4000103981F8220004E00020F649103981F8BD
:100A50002200F448103890F82000012821D1F248F3
:100A6000406C00F0010010B1EF48806CC8B9ED484F
:100A7000103890F82300401CEA49103981F823000F
:100A8000E948443002F00AFB002805DD0121E64870
:100A9000443002F0ECFA04E00020E249103981F819
:100AA0002000E048103890F82000002878D1DD4878
:100AB000FFF7F6FE0028F9D100BF00BF00BF02F02B
:100AC000CDFC074600BF00BFD8480078401CD7497E
:100AD000087000BF00BF384602F0C4FC00BF00BF72
:100AE00000BF0021D048443002F0C1FACD48103890
:100AF00081694069814216DDCA4810380169406940
:100B00000844C9490865C748103882694069101A05
:100B100081B2C548443002F0BFFAC248103881693A
:100B2000416115E04CE0BF48103801694069084454
:100B3000BD490865BB4810384069C0F5806081B286
:100B4000B948443002F0A8FA0021B6481038416193
:100B50000121B548443002F08AFA0120B149103928
:100B600081F8200000BF00BF00BF02F077FC0746FD
:100B700000BF00BFAD480078401EAC490870084671
:100B80000078A8B9AA48008800280ADD00BF00BF85
:100B9000384602F067FC00BF00BF04F010FF0EE013
:100BA00015E000BF00BF384602F05CFC00BF06E065
:100BB00000BF00BF384602F055FC00BF00BF06E092
:100BC0009C48844203D09C48844200D000BF00BFB0
:100BD00026E72DE9F04104460F46164600259748C2
:100BE000844210D100BF0BE000BF208800F040001D
:100BF0000028FAD0795D204600F0C4FF681C85B259
:100C0000B542F1DB04E0324639462046FFF700FFEB
:100C1000BDE8F0810FB438B50546002406A8009061
:100C2000FF218748009B059A0BF0B0FD0446002089
:100C30000090601C90B1FF2C10DC0020804908550A
:100C40007E48854204D1A2B22846FFF7C2FF2FE0BA
:100C5000A2B27B492846FFF7DBFE29E0FF2C14DD1A
:100C6000224678A176480BF0ABFD044673488542D6
:100C700005D1A2B272492846FFF7ABFF18E0A2B235
:100C80006F492846FFF7C4FE12E07BA16C480BF0C9
:100C900097FD04466948854205D1A2B268492846B5
:100CA000FFF797FF04E0A2B265492846FFF7B0FEC0
:100CB00038BC5DF814FB00B587B00121042001F0B9
:100CC00097F90121880301F093F94FF40070ADF812
:100CD000080003208DF80A0018208DF80B0002A9E7
:100CE000704800F0C5FC4FF48060ADF80800482063
:100CF0008DF80B0002A96B4800F0BAFC4FF4E1300C
:100D000003900020ADF81000ADF81200ADF814000B
:100D10000C20ADF816000020ADF8180003A94048DB
:100D200000F037FE012280213D4800F0EFFE012255
:100D300040213B4800F0EAFE002240F2266138489C
:100D400000F0BFFE002240F22551354800F0B9FE08
:100D5000002240F22771324800F0B3FE002240F238
:100D600024412F4800F0ADFE01224FF458712C4869
:100D700000F0A7FE01212A4800F097FE25208DF8FB
:100D8000040003208DF805008DF8060001208DF881
:100D9000070001A800F0A3FB07B000BD00B58DB0AF
:100DA0000F208DF8300002208DF8310000208DF8E2
:100DB000320001208DF833000CA800F090FB0121D7
:100DC000084601F008F91848583002F083F8144832
:100DD000001D019013481038006802900020039015
:100DE000012004900020059006900790089009903B
:100DF0004FF440500A9000200B9001A90A48583047
:100E000002F00AF901210848583002F030F90122B5
:100E10000A210548583002F036F90DB000BD000037
:100E2000003801404012002000000240A8000020CD
:100E30006C0000200044004000480040005000408A
:100E4000F01A002055534152545F7072696E7466F7
:100E50003A537472696E67206C656E6774682069B6
:100E60007320746F6F206C6F6E672C4C656E6774A7
:100E7000683A25640A00000055534152545F70726D
:100E8000696E74663A76736E7072696E746628293C
:100E90002072657475726E202D312C66696C6564E4
:100EA0002E0A00000008014000B58DB00E208DF81C
:100EB000300002208DF8310003208DF8320001202F
:100EC0008DF833000CA800F00AFB0121084601F060
:100ED00082F8FE4801F0FEFFFD480190FD480069E0
:100EE000029010200390002004900590802006902E
:100EF00000200790089009904FF400500A900020BD
:100F00000B9001A9F14802F087F801220A21EF486D
:100F100002F0B9F80DB000BDEF48EE4908614FF49A
:100F20008061EC48C161ED48EA4908604FF4806097
:100F3000C860704710B5FFF7EFFFFFF7B5FFFFF789
:100F40002DFFFFF7B8FE10BD10B5002403F0B6FF6B
:100F500000BF00BF00BF02F081FA044600BF00BF1F
:100F6000DF480078401CDE49087000BF00BF204603
:100F700002F078FA00BF00BF00BF4FF4005002F04B
:100F8000B0F8002843D04FF4005002F0BEF8002122
:100F9000CE4802F06CF8CF4881694069814216DD85
:100FA000CC48016940690844C84944390865C948C2
:100FB00082694069101A81B2C44802F06DF8C548D0
:100FC000816941610121C14802F051F81FE0C14827
:100FD00081694069814216DABE4801694069084466
:100FE000BA4944390865BB484069C0F5806081B2A0
:100FF000B64802F051F80021B64841610121B348DA
:1010000002F035F803E00020B24981F820004FF4E7
:10101000004002F066F8A8B14FF4004002F075F805
:101020000021AA4802F023F8A84802F037F8002867
:1010300004DD0121A54802F01AF803E00020A549CB
:1010400081F820004FF4805002F05FF800BF00BF2D
:1010500000BF02F003FA044600BF00BFA0480078BA
:10106000401E9F49087008460078A0B99D48008836
:10107000002809DD00BF00BF204602F0F3F900BFE1
:1010800000BF04F09CFC0DE000BF00BF204602F052
:10109000E9F900BF06E000BF00BF204602F0E2F918
:1010A00000BF00BF00BF03F01AFF10BD10B5002441
:1010B00003F004FF00BF00BF00BF02F0CFF90446F9
:1010C00000BF00BF86480078401C8549087000BFFB
:1010D00000BF204602F0C6F900BF00BF00BF4FF4BA
:1010E000003001F0FEFF08B34FF4003002F00DF8BD
:1010F00000217648143001F0BAFF7648FFF79EFBD6
:1011000050B97448FFF7D5FB724800687149896887
:1011100008446E494439486601216C48143001F096
:10112000BBFF01216948143001F0A1FF4FF40020FA
:1011300001F0D7FFD0B14FF4002001F0E6FF00210D
:101140006248143001F093FF624800686149896881
:1011500008445E494439486601215C48143001F076
:101160009BFF01215948143001F081FF4FF480307A
:1011700001F0CBFF00BF00BF00BF02F06FF90446D3
:1011800000BF00BF56480078401E55490870084609
:101190000078A0B953480088002809DD00BF00BFCF
:1011A000204602F05FF900BF00BF04F008FC0DE02C
:1011B00000BF00BF204602F055F900BF06E000BFA7
:1011C00000BF204602F04EF900BF00BF00BF03F091
:1011D00086FE10BD10B5002403F070FE00BF00BFF6
:1011E00000BF02F03BF9044600BF00BF3C48007856
:1011F000401C3B49087000BF00BF204602F032F996
:1012000000BF00BF00BF40F224413148001F00F082
:101210003DFD50B101202F4981F82100002240F20C
:1012200024412B48001F00F04CFC40F22661284866
:10123000001F00F02BFD60B1002240F2266124481F
:10124000001F00F03EFC40F226612148001F00F024
:1012500047FD08211E48001F00F002FD18B30821B9
:101260001B48001F00F009FD1948001F00F08EFC0C
:101270001648143001F012FFA8B9002113481430A9
:1012800001F0F5FE01211148143001F005FF0121A4
:101290000E48143001F0EBFE0E4890F82400401C7C
:1012A0000C4981F8240000BF00BF00BF02F0D6F84F
:1012B000044600BF00BF0A480078401E0849087075
:1012C0000846007818BB074800880DE0440002403B
:1012D0000438014030120020F0120020F0160020E7
:1012E000A80000206C000020002809DD00BF00BF1E
:1012F000204602F0B7F800BF00BF04F060FB0DE02D
:1013000000BF00BF204602F0ADF800BF06E000BFFE
:1013100000BF204602F0A6F800BF00BF00BF03F0E8
:10132000DEFD10BD014600BF704700BF054A1288B0
:1013300002F04002002AF9D0C2B2024B1B1D1A80F3
:10134000704700000038014008B5684603F074FE9D
:1013500008BD08B5684603F0B9FE08BD38B50446B7
:101360006A46082120460AF0A5F938BD10B5424862
:101370000078012805D103F0A1FD0AF027FC03F055
:10138000AEFD10BD10B56FF0040000F0F2F83B4860
:1013900000683B49B0FBF1F03A49087037480068F3
:1013A0003749B0FBF1F438480068C910B1FBF0F0E0
:1013B0004443354800684FF47A71B1FBF0F033498B
:1013C00008804FF0E020006940F002004FF0E0217B
:1013D000086108464461006940F00100086110BDE1
:1013E0002DE9F047074600264FF0E020D0F8149092
:1013F0002448007807FB00F800BFFFF7A5FF4FF077
:10140000E020856911E04FF0E0208469AC420CD007
:10141000AC4202D2281B064403E0A9EB0400284496
:1014200006442546464500D300E0ECE700BFFFF741
:1014300090FFBDE8F08770B504460F480078A0B172
:101440001348007888B911480088844206DB0F48A9
:10145000008894FBF0F52846FFF780FF0B480088D2
:1014600094FBF0F100FB114084B24FF47A7104FB5D
:1014700001F0FFF7B5FF70BD6100002004000020FF
:1014800000127A0018000020F4E200081A00002080
:10149000600000200948804709480047FEE7FEE752
:1014A000FEE7FEE7FEE7FEE7FEE7FEE7FEE7FEE714
:1014B00004480549054A064B704700001307000819
:1014C00031010008183C002018460020183E00207A
:1014D000183E002031490143314A1160704770B510
:1014E000002100230F22C47804B32D4C246804F497
:1014F000E064C4F5E064210AC1F10403CA40447801
:1015000004FA03F18478144021430901254C06783C
:10151000A155047804F01F050124AC4005786D1135
:10152000AD0005F1E025C5F8004109E0047804F0BC
:101530001F050124AC401C4D0678761145F8264065
:1015400070BD1A4A0A400243154B1B1F1A607047B0
:1015500039B1134A121D12680243114B1B1D1A6048
:1015600006E00F4A121D126882430D4B1B1D1A60C4
:101570007047042808D14FF0E021096941F00401C7
:101580004FF0E022116107E04FF0E021096921F0FE
:1015900004014FF0E0221161704700000000FA05DD
:1015A0000CED00E000E400E080E100E080FFFF1FC0
:1015B00010B50446CC48844208D10121042000F033
:1015C00031FD0021042000F02DFD46E0C748844293
:1015D00008D10121082000F025FD0021082000F09D
:1015E00021FD3AE0C248844208D10121102000F0D8
:1015F00019FD0021102000F015FD2EE0BD488442A9
:1016000008D10121202000F00DFD0021202000F054
:1016100009FD22E0B848844208D10121402000F0B1
:1016200001FD0021402000F0FDFC16E0B34884429B
:1016300008D10121802000F0F5FC0021802000F07D
:10164000F1FC0AE0AE48844207D10121801500F088
:10165000E9FC0021A01500F0E5FC10BD10B501214A
:10166000084600F0DFFC0021012000F0DBFC10BD8B
:101670002DE9F04102460025002600200023002429
:10168000002791F803C00CF00F0591F803C00CF08F
:10169000100CBCF1000F03D091F802C04CEA050514
:1016A00091F800C0BCF1000F31D0146800202BE08D
:1016B0004FF0010C0CFA00F3B1F800C00CEA03067D
:1016C0009E4220D183004FF00F0C0CFA03F7BC436D
:1016D00005FA03FC4CEA040491F803C0BCF1280F9E
:1016E00006D14FF0010C0CFA00FCC2F814C00AE05D
:1016F00091F803C0BCF1480F05D14FF0010C0CFA72
:1017000000FCC2F810C0401C0828D1D31460B1F806
:1017100000C0BCF1FF0F34DD546800202EE000F162
:10172000080C4FF0010808FA0CF3B1F800C00CEAFD
:1017300003069E4221D183004FF00F0C0CFA03F7F1
:10174000BC4305FA03FC4CEA040491F803C0BCF165
:10175000280F05D100F1080C08FA0CF8C2F8148023
:1017600091F803C0BCF1480F07D100F1080C4FF00D
:10177000010808FA0CF8C2F81080401C0828CED3E3
:101780005460BDE8F0814FF6FF7101800221817045
:101790000421C17070470246002093680B400BB1D2
:1017A000012000E0002070470146886880B2704741
:1017B00002460020D3680B400BB1012000E000205E
:1017C00070470146C86880B2704701617047416147
:1017D00070470AB1016100E041617047C160704724
:1017E0004FF480320A438261816182618269826939
:1017F000704702460020434B18684FF6807318402C
:1018000040EA021008433F4B186070473E49C861E8
:101810007047F0B50A46002300240021002500F09F
:101820000046B6F1004F02D1364EF16901E0354E67
:101830007168C0F3034583B200F44016B6F5401F4B
:1018400008D121F070612F4E766826F070662D4F1A
:101850007E6012E000F48016B6F5801F06D10326E4
:1018600006FA05F4A14341F0706106E0460D360129
:1018700003FA06F6B14341F0706122B1460D36011C
:1018800003FA06F6314300F00046B6F1004F02D1EC
:101890001C4EF16101E01B4E7160F0BD30B50022BD
:1018A0008B071C0F0F2303FA04F2164B08338C101E
:1018B00053F824309343134C08348D1044F82530EA
:1018C00023468C1053F824308C07240F00FA04F4BC
:1018D00023430C4C08348D1044F8253030BD0A49A0
:1018E000DC3108607047000000080140000C014036
:1018F000001001400014014000180140001C01408C
:1019000000200140000001400000204210B50446C4
:10191000FB48844209D10121880300F083FB0021A8
:101920004FF4804000F07EFB32E0F648844209D15B
:101930000121480400F083FB00214FF4003000F047
:101940007EFB25E0F048844209D10121880400F0A3
:1019500076FB00214FF4802000F071FB18E0EB488B
:10196000844209D10121C80400F069FB00214FF431
:10197000002000F064FB0BE0E548844208D101211F
:10198000080500F05CFB00214FF4801000F057FBCD
:1019900010BD2DE9F04786B005460E460024A2464C
:1019A00000BFA1460027B08900B100BF2F462C8A96
:1019B0004CF6FF700440F08804432C82AC894EF64C
:1019C000F3100440B0883189084371890843044307
:1019D000AC81AC8A4FF6FF400440B0890443AC822E
:1019E00001A800F098FAC648874202D1DDF810A09D
:1019F00001E0DDF80CA0A88900F4004040B10AEB3A
:101A0000CA0000EB0A1031684900B0FBF1F807E0AA
:101A10000AEBCA0000EB0A1031688900B0FBF1F84C
:101A20006420B8FBF0F004012009642101FB108957
:101A3000A88900F4004040B1322000EBC900B0FB9F
:101A4000F1F000F00700044308E0322000EB091039
:101A50006421B0FBF1F000F00F0004432C8106B0CC
:101A6000BDE8F0874FF41651016000218180C180EC
:101A700001810C21418100218181704710B502460E
:101A80000020108A4FF2FF0318400B884C88234334
:101A90008C882343CC8823431843108210BD002137
:101AA000018041808180C180704721B1828942F4E8
:101AB0000052828104E082894DF6FF731A408281D0
:101AC0007047F0B50346002400260025002040F6AC
:101AD0006A17B94200D100BF1846C1F3421401F0A1
:101AE0001F06012707FA06F5012C01D10C3004E08E
:101AF000022C01D1103000E014301AB107682F43D6
:101B0000076002E00768AF430760F0BD1AB1838A3F
:101B10000B43838202E0838A8B4383827047028A6D
:101B20004FF6F0731A400282028A0A43028270471B
:101B300082894FF2FF731A40828182890A4382812F
:101B4000704721B1828942F00202828104E08289D9
:101B50004FF6FD731A4082817047028A4FF6DF7399
:101B60001A400282028A0A430282704721B1028A25
:101B700042F48042028204E0028A4BF6FF731A406C
:101B800002827047C1F3080282807047014688884C
:101B9000C0F308007047818941F0010181817047DD
:101BA000028BD2B20283028B42EA01220283704787
:101BB000028B02F47F420283028B0A430283704746
:101BC00021B1828A42F02002828204E0828A4FF6AA
:101BD000DF731A408282704721B1828A42F010027C
:101BE000828204E0828A4FF6EF731A408282704745
:101BF00021B1828A42F00802828204E0828A4FF692
:101C0000F7731A408282704721B1828942F4004200
:101C1000828103E08289C2F30E028281704721B182
:101C2000828A42F40062828204E0828A4FF2FF7369
:101C30001A4082827047828A4FF6FB731A40828272
:101C4000828A0A438282704721B1828A42F002026C
:101C5000828204E0828A4FF6FD731A4082827047C6
:101C600002460020B1F5007F00D100BF13880B4071
:101C70000BB1012000E00020704701F40072B2F5C2
:101C8000007F00D100BFCA430280704770B5024692
:101C9000002400230025002040F66A16B14200D13E
:101CA00000BFC1F3421501F01F03012606FA03F33A
:101CB000012D02D19689334006E0022D02D1168A09
:101CC000334001E0968A33400C12012606FA04F4F0
:101CD0001688344013B10CB1012000E0002070BD23
:101CE00010B50022002340F66A14A14200D100BFC3
:101CF0000A1201249440A3B2DC43048010BD00000A
:101D0000003801400044004000480040004C0040C2
:101D100000500040DF48006840F00100DD490860E5
:101D200008464068DC490840DA49486008460068CF
:101D3000DA490840D74908600846006820F4802046
:101D400008600846406820F4FE0048604FF41F0019
:101D500088607047CF49096821F48031CD4A11600D
:101D60001146096821F480211160B0F5803F03D04D
:101D7000B0F5802F0ED106E0C649096841F48031E4
:101D8000C44A116007E0C349096841F4A021C14A6F
:101D9000116000E000BF00BF704710B5014600228F
:101DA000002300204A11012A02D1BA4C236806E020
:101DB000022A02D1B74C236A01E0B64C636A01F0F3
:101DC0001F02012494401C400CB1012000E00020BF
:101DD00010BD38B5002000900024002500BF312040
:101DE000FFF7DBFF05460098401C00900098B0F517
:101DF000A06F01D0002DF2D03120FFF7CEFF08B147
:101E0000012400E00024204638BD01460020A14AFC
:101E1000106820F0F80040EAC10010607047A04947
:101E200008607047024600209A4B586820F47C10E6
:101E300042EA01031843974B586070479849086677
:101E4000704701460020934A506820F00300084381
:101E5000506070478F48406800F00C0070470146A2
:101E600000208C4A506820F0F00008435060704712
:101E700001460020874A506820F4E0600843506023
:101E8000704701460020834A506820F4605040EAC1
:101E9000C1005060704729B17E4A527A02437D4B9F
:101EA0005A7204E07B4A527A82437A4B5A727047E4
:101EB0007B49D8310860704701460020754A506858
:101EC00020F440400843506070470021714A20329E
:101ED0001170704A82F82010012802D004280AD11B
:101EE00004E001216B4A2032117005E00521694AA6
:101EF0002032117000E000BF00BF704769490860E0
:101F000070476449096A0143624A11627047654932
:101F100044390860704730B50021002200240023B6
:101F20005C4D6D6805F00C0121B1042905D008292C
:101F300023D105E05C4D056022E05B4D05601FE0AC
:101F4000544D6D6805F47012524D6D6805F480347F
:101F5000022505EB92421CB9544D554305600BE038
:101F60004C4D6D6805F400351DB1504D554305606D
:101F700002E04D4D5543056002E04B4D056000BF4A
:101F800000BF444D6D6805F0F0010909484D6B5CD8
:101F90000568DD4045603F4D6D6805F4E061090A64
:101FA000434D6B5C4568DD4085603A4D6D6805F4D6
:101FB0006051C90A3E4D6B5C4568DD40C560354DDA
:101FC0006D6805F44041890B3A4D6B5CC568B5FB03
:101FD000F3F5056130BD29B12E4A526902432D4BFC
:101FE0005A6104E02B4A526982432A4B5A61704776
:101FF00029B1284A92690243264B9A6104E0254A96
:1020000092698243234B9A61704729B1214AD26970
:102010000243204BDA6104E01E4AD26982431D4B21
:10202000DA61704729B11B4AD2680243194BDA6062
:1020300004E0184AD2688243164BDA60704729B12F
:10204000144A12690243134B1A6104E0114A1269DF
:102050008243104B1A61704712494039086070473B
:102060000F49C86470470B49C87170470948406AF6
:1020700040F0807007494862704701460020054AD9
:1020800092680A400AB1012000E00020704701492F
:1020900088727047001002400000FFF8FFFFF6FE54
:1020A000000042428004424200127A0000093D00D2
:1020B0001C0000202C00002010B50446FE4884427D
:1020C00008D10121C014FFF7ADFF0021E014FFF794
:1020D000A9FFC4E0B4F1804F08D101210846FFF701
:1020E000AEFF00210120FFF7AAFFB8E0F3488442C9
:1020F00008D101210220FFF7A2FF00210220FFF7F3
:102100009EFFACE0EE48844208D101210420FFF795
:1021100096FF00210420FFF792FFA0E0E9488442E7
:1021200008D101210820FFF78AFF00210820FFF7CE
:1021300086FF94E0E448844208D101211020FFF793
:102140007EFF00211020FFF77AFF88E0DF488442FD
:1021500008D101212020FFF772FF00212020FFF786
:102160006EFF7CE0DA48844208D101214014FFF779
:1021700059FF00216014FFF755FF70E0D5488442F5
:1021800009D10121C804FFF74DFF00214FF40020C1
:10219000FFF748FF63E0D048844209D101210805D8
:1021A000FFF740FF00214FF48010FFF73BFF56E0A0
:1021B000CA48844209D101214805FFF733FF0021B5
:1021C0004FF40010FFF72EFF49E0C548844208D1C4
:1021D00001214020FFF733FF00214020FFF72FFFB0
:1021E0003DE0C048844208D101218020FFF727FF4D
:1021F00000218020FFF723FF31E0BB48844208D153
:1022000001218015FFF71BFF0021A015FFF717FF25
:1022100025E0B648844209D101210804FFF702FFF6
:1022200000214FF48030FFF7FDFE18E0B0488442F3
:1022300009D101214804FFF7F5FE00214FF40030D9
:10224000FFF7F0FE0BE0AB48844208D1012188047F
:10225000FFF7E8FE00214FF48020FFF7E3FE10BDFA
:1022600000220288944B98420ED0994B98420BD092
:10227000B0F1804F08D0914B984205D0904B9842D6
:1022800002D0904B984204D14FF68F731A404B887E
:102290001A438D4B984207D08C4B984204D04FF68E
:1022A000FF431A40CB881A4302808B8883850B88B2
:1022B0000385814B98420BD0854B984208D08B4BBD
:1022C000984205D08A4B984202D08A4B984201D15D
:1022D0000B7A038601238382704770B500240022A5
:1022E0000023058C4FF6FE7635400584028C8388EA
:1022F000048B4FF68F752C40B51E2C400D882C4357
:10230000751E2A400D892A434D882A436A4DA842EA
:102310000BD06F4DA84208D0744DA84205D0744D23
:10232000A84202D0734DA84213D14FF6F7752A4048
:102330004D892A434FF6FB752A408D882A434FF674
:10234000FF652B404FF6FF552B408D892B43CD89E0
:102350002B4383800483CD888586028470BD70B54D
:10236000002400220023058C4FF6EF7635400584CB
:10237000028C8388048B48F6FF752C404FF6FF458E
:102380002C400D884FF6FF7606EA05252C434FF6C4
:10239000DF752A400D8906EA05152A434D8806EAAD
:1023A00005152A43444DA84202D0494DA8421DD1EB
:1023B0004FF67F752A404D894FF6FF7606EA0515E0
:1023C0002A434FF6BF752A408D8806EA05152A4331
:1023D0004FF6FF352B404FF2FF752B408D8906EAF3
:1023E00085052B43CD8906EA85052B43838004832D
:1023F000CD880587028470BD70B5002400220023BB
:10240000058C4FF6FF6635400584028C8388848BEB
:102410004FF68F752C404FF6FC752C400D882C43E1
:102420004FF6FF552A400D894FF6FF7606EA05253F
:102430002A434D8806EA05252A431F4DA84202D0AB
:10244000234DA8421DD14FF2FF752A404D894FF60A
:10245000FF7606EA05252A434FF6FF352A408D8888
:1024600006EA05252A434EF6FF752B404DF6FF750B
:102470002B408D8906EA05152B43CD8906EA051503
:102480002B4383808483CD888587028470BD70B59B
:10249000002200230024058C4EF6FF76354005848B
:1024A000038C8488828B48F6FF752A404FF6FF45DF
:1024B0002A400D8820E00000002C0140000400406C
:1024C00000080040000C00400010004000140040D4
:1024D00000340140004C01400050014000540140D4
:1024E00000180040001C0040002000400040014057
:1024F00000440140004801404FF6FF7606EA0525FA
:102500002A434DF6FF752B400D8906EA05352B430E
:102510004D8806EA05352B43FA4DA84202D0FA4D04
:10252000A84208D14BF6FF752C408D894FF6FF76F7
:1025300006EA85152C4384808283CD88A0F840501C
:10254000038470BD828B4FF2FF331A408283828BEB
:102550004FF6FF7303EA01231A4382837047F0B5F5
:102560000C461546002200210026078C4EF6FF7C03
:1025700007EA0C070784828B018C4FF6FF7707EA86
:10258000043640F6FF473A404FF6FF7707EA052743
:102590003A434FF6FF7707EA03373A43D94FB84239
:1025A0000ED0D94FB8420BD0B0F1804F08D0D74FE2
:1025B000B84205D0D64FB84202D0D64FB84206D165
:1025C0004DF6FF77394046F48057394305E047F62A
:1025D000FF57394044F48057394382830184F0BD6A
:1025E000828B4FF6F3731A408283828B0A43828375
:1025F0007047F0B50C461546002200210026078CD6
:102600004FF6FF6C07EA0C070784828B018C4FF6AC
:10261000FF7707EA04264FF60C773A404FF6FF772C
:1026200007EA03172F433A43B64FB8420ED0B64FCE
:10263000B8420BD0B0F1804F08D0B44FB84205D0AB
:10264000B34FB84202D0B34FB84206D14FF6FF574E
:10265000394046F48077394305E04FF2FF5739405F
:1026600044F48077394382830184F0BD028B4FF2BA
:10267000FF331A400283028B4FF6FF7303EA0123F4
:102680001A4302837047F0B50C461546002200211C
:102690000026078C4FF6EF7C07EA0C070784028BB5
:1026A000018C4FF6FF7707EA041640F6FF473A40E1
:1026B0004FF6FF7707EA03373A434FF6FF7707EA0B
:1026C00005273A438F4FB8420ED08F4FB8420BD0F8
:1026D000B0F1804F08D08D4FB84205D08C4FB84232
:1026E00002D08C4FB84206D14FF6DF77394046F022
:1026F0001007394305E04FF65F77394044F0100783
:10270000394302830184F0BD028B4FF6F3731A4004
:102710000283028B0A4302837047F0B50C461546CC
:1027200000220021068C4FF6FE773E400684028B85
:10273000018C4FF60C7632407E1C06EA03162E43BF
:102740003243704EB0420ED06F4EB0420BD0B0F15B
:10275000804F08D06D4EB04205D06D4EB04202D0D1
:102760006C4EB04206D14FF6FD76314044F0010682
:10277000314305E04FF6F576314044F00106314330
:1027800002830184F0BD70B505460C465D48854264
:102790000ED05D4885420BD0B5F1804F08D05B4824
:1027A000854205D05A48854202D05A48854200D118
:1027B00000E000BF208850B92389A288618828469C
:1027C000FFF7ABFFE1882846FFF79EFF25E0208852
:1027D00004280AD12389A28861882846FFF753FF7D
:1027E000E1882846FFF742FF17E0208808280AD131
:1027F0002389A28861882846FFF7FBFEE1882846E6
:10280000FFF7EEFE09E02389A28861882846FFF7DA
:10281000A6FEE1882846FFF795FE70BD2DE9F04140
:1028200005460C4600260127608808B9022600E00C
:102830000026A088012801D1022700E00127208876
:10284000A0B92389A28861882846FFF766FFE1883E
:102850002846FFF759FF23893A4631462846FFF7B5
:1028600012FFE1882846FFF701FF13E02389A288C1
:1028700061882846FFF707FFE1882846FFF7F6FE44
:1028800023893A4631462846FFF747FFE188284624
:10289000FFF73AFFBDE8F0810A884B881A438B881E
:1028A0001A43CB881A430B891A434B891A438B89E5
:1028B0001A43A0F8442070474FF6FF718180002131
:1028C0000180C180418001727047002101804180F8
:1028D0008180C180018141818181C1817047002156
:1028E00001804180012181800021C18001817047E8
:1028F0000021018041808180C180018141818181ED
:1029000070470000002C01400034014000040040EA
:1029100000080040000C004021B1028842F0010292
:10292000028004E002884FF6FE731A40028070476E
:1029300031B1B0F8442042F40042A0F8442005E050
:10294000B0F84420C2F30E02A0F8442070471AB138
:1029500083890B43838102E083898B4383817047A2
:102960008182704741EA0203A0F8483070471AB1EB
:1029700083890B43838102E083898B438381704782
:1029800001894FF6F8721140018170470A46002113
:1029900001894FF68F73194011430181704730B59B
:1029A00004460D4629462046FFF7F0FF208940F0F7
:1029B0000700208130BD2DE9F04104460D46164642
:1029C0001F46602D06D13B46012231462046FFF7C7
:1029D0005AFE05E03B46012231462046FFF79DFEA8
:1029E00029462046FFF7D2FF208940F007002081CA
:1029F000BDE8F08130B50C4600210189C9B24FF61F
:102A0000FF7505EA0325154325432943018130BDA0
:102A10002DE9F04105460E461746984600244346E8
:102A20003A4631462846FFF7E5FF2C894FF6F87005
:102A3000044044F007044FF68F70044044F07004E3
:102A40002C81BDE8F081F0B504460D4616461F46C0
:102A50003B46324629462046FFF7CCFF208940F40A
:102A600080402081F0BD0185828270470A460021A6
:102A700001884FF68F731940114301807047F0B5FC
:102A80000C4615461E460021002200230189028BB8
:102A9000038C4FF6F877394021434FF6FC473A4014
:102AA00040F201173A434FF6DD773B404FF6FF7790
:102AB00007EA06172F433B43018102830384F0BDDD
:102AC0000A460021018B4FF68F7319401143018391
:102AD00070470A460021018B48F6FF7319404FF6F4
:102AE000FF7303EA02231943018370470A4600215A
:102AF000818B4FF68F7319401143818370470A46CB
:102B00000021818B48F6FF7319404FF6FF7303EAEB
:102B1000022319438183704721B1028842F0800269
:102B2000028004E002884FF67F731A4002807047EB
:102B300021B1828842F00402828004E082884FF64C
:102B4000FB731A408280704721B1828842F00802EC
:102B5000828004E082884FF6F7731A4082807047C3
:102B600021B1828842F00102828004E082884FF61F
:102B7000FE731A40828070470A460021018B4FF68F
:102B8000F77319401143018370470A460021018BF6
:102B90004FF2FF7319404FF6FF7303EA0223194304
:102BA000018370470A460021818B4FF6F773194065
:102BB0001143818370470A460021818B4FF2FF73D6
:102BC00019404FF6FF7303EA0223194381837047CC
:102BD0000A460021018B4FF6FB7319401143018314
:102BE00070470A460021018B4FF6FF3319404FF61C
:102BF000FF7303EA02231943018370470A46002149
:102C0000818B4FF6FB7319401143818370470A464D
:102C10000021818B4FF6FF3319404FF6FF7303EA13
:102C200002231943818370470A460021018B4FF626
:102C30007F7319401143018370470A460021018BBD
:102C4000C1F30E014FF6FF7303EA02231943018318
:102C500070470A460021818B4FF67F73194011435C
:102C6000818370470A460021818BC1F30E014FF624
:102C7000FF7303EA02231943818370470A46002148
:102C8000018C4FF6FD7319401143018470470A46C9
:102C90000021018C4FF6F7731940114301847047EE
:102CA0000A460021018C4FF6DF7319404FF6FF737F
:102CB00003EA02131943018470470A460021018C7C
:102CC0004FF67F7319404FF6FF7303EA021319435F
:102CD000018470470A460021018C4FF6FF531940CA
:102CE0004FF6FF7303EA02231943018470470A4633
:102CF0000021018C4FF2FF7319404FF6FF7303EA76
:102D000002231943018470470A460021018C4DF6C5
:102D1000FF7319404FF6FF7303EA0233194301842E
:102D2000704730B5002301248C40A3B2048C9C432F
:102D30000484048C02FA01F5ADB22C43048430BD46
:102D400030B5002304248C40A3B2048C9C4304843B
:102D5000048C02FA01F5ADB22C43048430BD70B589
:102D60000346002000241846183001258D40ACB2DF
:102D70001D8CA5431D8409B1082909D100EB610010
:102D8000056825F0700505600568154305600EE0CF
:102D90000D1FC5F34E052844056825F4E045056080
:102DA00005684FF6FF7606EA02263543056070BDDA
:102DB00021B1028842F00202028004E002884FF64C
:102DC000FD731A400280704721B1028842F004026C
:102DD000028004E002884FF6FB731A4002807047BD
:102DE00021B1828842F08002828004E082884FF61E
:102DF0007F731A408280704702884FF6F7731A403B
:102E0000028002880A430280704782884FF68F73DF
:102E10001A40828082880A438280704702894FF676
:102E2000F8731A40028102890A43028170470289BD
:102E30004FF67F731A40028102890A43028170476C
:102E4000818470478185704781867047018770470C
:102E500081877047A0F84010704702884FF6FF4303
:102E60001A40028002880A43028070470146888E19
:102E700070470146088F70470146888F70470146AA
:102E8000B1F8400070470146888C70470146088DB4
:102E9000704702460020138A0B400BB1012000E06E
:102EA00000207047CA430282704730B502460020B6
:102EB00000230024158A05EA0103958905EA010427
:102EC00013B10CB1012000E0002030BDCA430282E2
:102ED0007047000001684FF6FE721140016000214A
:102EE000016041608160C1608D49884208D18C4990
:102EF0000839496841F00F01894A083A51608AE06F
:102F000087491431884208D185490839496841F018
:102F1000F001834A083A51607DE0814928318842B6
:102F200008D17F490839496841F470617C4A083A00
:102F3000516070E07A493C31884208D178490839BB
:102F4000496841F47041764A083A516063E0744937
:102F50005031884208D172490839496841F47021DA
:102F60006F4A083A516056E06D496431884208D191
:102F70006B490839496841F47001694A083A51605F
:102F800049E067497831884208D16549083949687C
:102F900041F07061624A083A51603CE06149884200
:102FA00006D1011F096841F00F01021F116032E0D4
:102FB0005C491431884208D15A49091F096841F017
:102FC000F001584A121F116025E056492831884205
:102FD00008D15449091F096841F47061514A121F10
:102FE000116018E04F493C31884208D14D49091F12
:102FF000096841F470414B4A121F11600BE04949C6
:103000005031884207D14749091F096841F47021AE
:10301000444A121F1160704710B50022026847F63B
:10302000F0739A430C6A8B6823430C6923434C6901
:1030300023438C692343CC6923434C6A23438C6A22
:1030400023431A430260CB6843600B6883604B687C
:10305000C36010BD0021016041608160C1600161F9
:1030600041618161C161016241628162704721B148
:10307000026842F00102026004E002684FF6FE734B
:103080001A40026070471AB103680B43036002E004
:1030900003688B430360704741607047014648688E
:1030A00080B2704701460020002201F080531BB11E
:1030B0001C4B083B1A6802E0194B083B1A6802EAED
:1030C00001030BB1012000E00020704700F08051A7
:1030D00019B11449091F086002E011490839486014
:1030E000704701460020002201F080531BB10D4BB8
:1030F000083B1A6802E00A4B083B1A6802EA01031F
:103100000BB1012000E00020704700F0805119B1A0
:103110000449091F086002E0014908394860704706
:10312000080002400804024000B585B06846FEF77A
:10313000F2FE019805B000BD10B5FFF7F5FF04469B
:103140001748006840F08070154908600020154954
:1031500048600846006840F001000860204600F022
:10316000B6F810BD0F49486870472DE9F047824610
:10317000FFF7DAFF4FF0000980460B4A0023404674
:10318000494609F08CFA064632460B465046002165
:1031900009F085FA04460D4620462946BDE8F08729
:1031A000FCED00E0001000E040420F0010B50024EC
:1031B00000BF00BF00F052F9044600BF00BF10215D
:1031C000A14800F0D2FA00BF00BF204600F04AF943
:1031D00000BF00BF10BD10B5FFF7E8FF10BD10B570
:1031E00000209A490860FFF7A7FF10BD10B5FFF750
:1031F000F6FFFFF7F0FF10BD00BFFEE770B5054614
:103200000C46002614B900BFFFF7F6FF15B90A20D7
:10321000208070BD00BF00BF00F020F9064600BF4F
:1032200000BF10228849284600F056FF00BF00BFAB
:10323000304600F017F900BF00BF0020208000BF1B
:10324000E7E72DE9F04105460C46002714B900BF19
:10325000FFF7D2FF1DB90A202080BDE8F0811021C0
:10326000284600F021FF0646102E15D200BF00BFF1
:1032700000F0F4F8074600BF00BF1022294672484C
:1032800000F02AFF00BF00BF384600F0EBF800BF97
:1032900000BF0020208002E04FF47A70208000BF41
:1032A000DBE710B5FFF75EFF0446204610BD704710
:1032B00000B5014611B900BFFFF79EFF634A1068D1
:1032C00008B1002201E04FF4FA620A8000BD5F49B4
:1032D0000860704770B50546284600F0CAF80446F5
:1032E000183C204670BD70B50546284600F0C1F870
:1032F0000446103C204670BD70B50546284600F0D7
:10330000B8F8044600BF204670BD30B502460B46F3
:103310000024D2F1FF359C4126D24FF6FF74D2F142
:10332000FF359C410FD26FF07F44D2F1FF359C41B5
:1033300003D2190E464C605C44E0190C444C645CAA
:1033400004F108003EE0FF24D2F1FF359C4105D294
:10335000190A3F4C645C04F1100033E019463C4C00
:10336000645C04F118002DE04FF6FF750024AD1ADF
:103370009C4115D26FF07F450024AD1A9C4107D2C5
:10338000140E44EA0321324C645C04F1200019E07D
:10339000140C44EA03412E4C645C04F1280011E053
:1033A0000024D2F1FF059C4107D2140A44EA0361CC
:1033B000274C645C04F1300004E01146244C645C4A
:1033C00004F1380030BD70B504460CB9082070BD5A
:1033D000204600F051F805462846F8E770B5044647
:1033E0000CB9102070BD204600F046F8054628466E
:1033F000F8E770B504460CB9202070BD204600F0F7
:103400003BF805462846F8E72DE9F04304460D460B
:10341000002184EA01006940084302D14020BDE850
:10342000F083E243E843521C40F1000102EA040643
:1034300001EA050730463946FFF767FF8046C8F1C5
:103440003F094846EBE70000EF1B0020300000205A
:10345000FCE0000872B6704762B67047EFF3108068
:1034600072B6704780F31088704730BF704720BF36
:103470007047B0FA80F0704790FAA0F0B0FA80F090
:10348000704790FAA0F070470146412903DB5A29A2
:1034900001DC012200E00022012A08D0612903DBBF
:1034A0007A2901DC012200E00022012A01D1012257
:1034B00000E00022104670470146412903DB5A29EB
:1034C00001DC012200E00022012A08D0612903DB8F
:1034D0007A2901DC012200E00022012A01D1012227
:1034E00000E00022012A08D0302903DB392901DC61
:1034F000012200E00022012A01D1012200E0002285
:10350000104670470146612903DB7A2901DC01225C
:1035100000E00022104670470146412903DB5A298A
:1035200001DC012200E000221046704701463029EC
:1035300003DB392901DC012200E00022104670473C
:103540000146302903DB372901DC012200E000229B
:10355000104670470146302901DB392907DD412932
:1035600001DB462903DD612903DB662901DC012239
:1035700000E00022104670470146202901D00929A9
:1035800001D1012200E000221046704701462029A7
:1035900009D00D2907D00A2905D00C2903D0092903
:1035A00001D00B2901D1012200E000221046704712
:1035B0000146202903DB7E2901DC012200E00022F4
:1035C000104670470146212903DB7E2901DC0122D8
:1035D00000E00022104670470146202903DB7E29C7
:1035E00001DC012200E00022012A35D1202909D086
:1035F0000D2907D00A2905D00C2903D0092901D0AB
:103600000B2901D1012200E000222ABB412903DB62
:103610005A2901DC012200E00022012A08D0612998
:1036200003DB7A2901DC012200E00022012A01D11A
:10363000012200E00022012A08D0302903DB3929C9
:1036400001DC012200E00022012A01D1012200E078
:1036500000220AB9012200E000221046704701460C
:103660004AB2002A01DB1F2901DD7F2901D1012295
:1036700000E00022104670470146412903DB5A2929
:1036800001DC012200E00022012A02D101F1200226
:1036900000E00A46D0B270470146612903DB7A296F
:1036A00001DC012200E00022012A02D1A1F1200266
:1036B00000E00A46D0B27047F0B504460B462046FB
:1036C000FFF7EAFF05461846FFF7E6FF0646B54254
:1036D00001D1012000E0002007463846F0BD00007F
:1036E000FC48FD4901600146416000218160C160E4
:1036F000016141618161C16101620163C162416235
:10370000F6498163C1634FF48061016441640146FD
:10371000F34A116070472DE9F04105460B46944687
:103720000027002402E03F021F43641C042CFAD34C
:10373000604605F00306294646B1344603E001F829
:10374000013B401E641C08B1042CF8D30A4601E07A
:1037500080C2001F0428FBD2114602E001F8013BA1
:10376000401E0028FAD1BDE8F08130B505460C4670
:10377000224600212846FFF7CEFF30BD2DE9F04F4D
:1037800085B007468846914646463D46AE4207D933
:103790004A464146384601F01DF905B0BDE8F08FB4
:1037A0004C4607EB0900451E08EB0900461EA81B06
:1037B00004900498042834D305F00300029006F026
:1037C00003010191DDE90110884201D1012000E0EF
:1037D000002000900098012823D10298032810D0DF
:1037E000029840B2039008E016F8010905F80109B3
:1037F000641E0398401E40B2039014B10398002841
:10380000F2DAA5F1030AA6F1030B04E05BF8040960
:103810004AF80409241F042CF8D20AF103050BF11D
:10382000030604E016F8010905F80109641E002CDE
:10383000F8D100BFB1E72DE9F84F8046894615461B
:1038400015B90120BDE8F88FB8F1000F01D10020B3
:10385000F8E7B9F1000F01D10020F3E70124294670
:1038600008EB050209EB050302F0030C03F0030B60
:10387000DC4501D1012000E00020009000980128E3
:1038800029D1BCF1000F12D0E2460AE0521E5B1EA5
:10389000107893F800E0704500D00024491EAAF18A
:1038A000010A012C03D111B1BAF1000FEED1012CA4
:1038B00011D116461F4608E0361F3F1F3068D7F863
:1038C00000E0704500D00024091F012C01D104291B
:1038D000F2D232463B4608E0521E5B1E107893F847
:1038E00000E0704500D00024491E012C01D10029C0
:1038F000F2D12046A6E7F0B503460E461546D96B31
:10390000B1FBF5F005FB101CBCF1000F02D0A5EBDC
:103910000C0200E000229419586CA04201D2002051
:10392000F0BD0F191144DF63586C001B5864084642
:10393000F6E72DE9F04106460F46B6FBF3FC03FB24
:103940001C6109B15C1A00E00024B2FBF3FC03FB2C
:103950001C2109B15D1A00E0002502EB0508A7F162
:10396000010C08FB0C4C0CEB0200BDE8F0812DE9CA
:10397000FE4F8046894614461E46002000900CB932
:1039800001AC00BF00202060524F00BF00BFFFF716
:1039900065FD009000BF00BFF86B0290D7F844B0FF
:1039A0004B46424601210298FFF7C3FF05465D459D
:1039B0000FD900BF00BF0098FFF754FD00BF00BF44
:1039C000A5EB0B00206042F2E27030800020BDE8E1
:1039D000FE8F4A4641463846FFF78DFF8246BAF1D0
:1039E000000F0CD100BF00BF0098FFF73BFD00BFE8
:1039F00000BF256042F2E27030800020E7E700BFA0
:103A000000BF0098FFF72EFD00BF00BF42F210700C
:103A100030805046DBE72DE9FC5F07460C469046B8
:103A20000020009000BF00BFFFF718FD009000BF0E
:103A300000BFD7F80490D9F8380008B1484600E034
:103A400024488246DAF84450DAF83CB000BF00BFA0
:103A50000098FFF707FD00BF00BF012C0AD9BBFB90
:103A6000F4F004FB10B60EB1A01B00E000200190A2
:103A700001982D1A42F21070A8F800002846BDE8FF
:103A8000FC9F70B504460D462A4621461148FFF7B3
:103A9000C2FF0646304670BD18B942F211720A8064
:103AA0007047104A0260002242608260C260026178
:103AB00042618261C2610262826242630263C262E7
:103AC00042628263C2630264426442F210720A80FC
:103AD00000BFE5E7001C002048454150481C00207D
:103AE000340000204E4F4E452DE9FF4F91B0044663
:103AF000DDE9208900200090B8F1000F02D10DF11E
:103B0000180800BF0020C8F8000049462046FFF70B
:103B1000C3FFB9F8000042F21071884202D015B01C
:103B2000BDE8F08FFE48006820B942F2E770A9F8BE
:103B30000000F4E7DFF8ECA30020059000BF00BF11
:103B4000FFF78CFC009000BF00BF129880BB554669
:103B5000AB462E46DAF83C000D9004231A46149921
:103B60000D98FFF7E6FE049004990D9808440C9018
:103B7000DDE91E2314990C98FFF7DBFE0390DDE9C5
:103B8000030108440590DAF844700598B8427DD9DD
:103B900000BF00BF0098FFF765FC00BF00BF05989D
:103BA000C01BC8F8000042F2E270A9F80000B6E7B6
:103BB000FFE712980B90DDE912010844401E0A90BD
:103BC0000025AB46D64806683BE0B16B12988142AF
:103BD00005D1316C1398814201D1354633E0B06B89
:103BE0000990316CB06B0844401E0890DDE9090172
:103BF000814200D227E009990B98884203D8DDE979
:103C0000091088420FD209990B98884203D308996A
:103C10000A98884207D908990B9888420FD80899C2
:103C20000A9888420BD300BF00BF0098FFF71AFC28
:103C300000BF00BF42F27F70A9F800006FE7B346F3
:103C4000F668002EC1D100BF45B925461298A06381
:103C50001298E0631398206413986064DAF83C00CB
:103C60000D9004231A4614990D98FFF762FE0490F4
:103C7000DAF844700498B84211D900BF00BF009828
:103C8000FFF7F0FB00BF00BF049800E024E0C01B7A
:103C9000C8F8000042F2E270A9F800003FE7E86BC4
:103CA0000C90DDE91E2314990C98FFF742FE039057
:103CB0006F6C0398B8420FD900BF00BF0098FFF7A0
:103CC000D1FB00BF00BF0398C01BC8F8000042F240
:103CD000D870A9F8000022E714988000029004220E
:103CE00050460299FFF707FE0F900F9830BBDAF8A5
:103CF000447000BF00BF0098FFF7B4FB00BF00BFD7
:103D0000129858B90598B84204D90598C01BC8F84C
:103D100000000EE00598C8F800000AE00298B842DA
:103D200004D90298C01BC8F8000002E00298C8F845
:103D3000000042F2E270A9F80000F0E600200190D5
:103D400034E02846DDE91E12FFF7D5FD0E900E98EF
:103D500020BBE86B0C906F6C00BF00BF0098FFF7B2
:103D600081FB00BF00BF01991498401A0790DDE95C
:103D70001E2307990C98FFF7DCFD05900598B842C3
:103D800004D90598C01BC8F8000002E00598C8F8DF
:103D9000000042F2D870A9F80000C0E6019ADDE9FF
:103DA0000E0141F822000198401C019014990198DD
:103DB0008842C6D3A5420DD1C4F808B0E660BBF175
:103DC000000F02D0CBF80C4001E0554804605EB112
:103DD000B46009E0686910902561109860616C61B9
:103DE000109808B1109804614F48206065600C98E5
:103DF000A06103990C980844401EE0610F9820626E
:103E00000398A0621F9860631E9820631498E06274
:103E10001498606200BF00BF0098FFF723FB00BF4B
:103E200000BF42F21070A9F8000000BF77E62DE94C
:103E3000F04104460D46002700BF00BFFFF70EFB10
:103E4000074600BF00BF666A00BF00BF3846FFF7E5
:103E500009FB00BF00BF42F2107028803046BDE869
:103E6000F0812DE9F041044688461546002700BF41
:103E700000BFFFF7F3FA074600BF00BF606A60B9F2
:103E800000BF00BF3846FFF7EDFA00BF00BF42F2A7
:103E9000DE7028800020BDE8F081E16A606A884217
:103EA0000BD900BF00BF3846FFF7DCFA00BF00BFE8
:103EB00042F2957028800020EDE7606A401E606243
:103EC000D4E9080150F8216000BF00BF3846FFF771
:103ED000C9FA00BF00BF42F2107028803046DAE70E
:103EE0002DE9F04704460F4615464FF0000900BF84
:103EF00000BFFFF7B3FA814600BF00BFE06AC01BF6
:103F0000461EE06AB04213D800BF00BF4846FFF724
:103F1000A9FA00BF00BF42F295702880002005E09A
:103F200034000020001C0020504F4F4CBDE8F087AB
:103F3000606AB0420BD900BF00BF4846FFF792FA53
:103F400000BF00BF42F2957028800020E7E7206A9A
:103F500050F8268000BF00BF4846FFF783FA00BF35
:103F600000BF42F2107028804046D8E72DE9F047A4
:103F700004460E4617464FF0000A00BF00BFFFF789
:103F80006DFA824600BF00BFE16A606A88420BD3C7
:103F900000BF00BF5046FFF765FA00BF00BF42F206
:103FA000DD703880BDE8F0874FF00008656A08E0F2
:103FB000206A50F82590B14502D14FF0010803E086
:103FC0006D1CE06AA842F3D800BFB8F1010F06D11A
:103FD000D4E9080150F82100216A41F82500D4E90C
:103FE000080140F82160606A401C606200BF00BFA9
:103FF0005046FFF737FA00BF00BF42F2107038801A
:1040000000BFCFE72DE9F84F04460F4616460020C3
:1040100000904FF0FF3B00BF00BFFFF71FFA00907A
:1040200000BF00BFE16A606A88420CD300BF00BFD6
:104030000098FFF717FA00BF00BF42F2DD70308032
:104040005846BDE8F88F4FF00009656A08E0206A1D
:1040500050F82580B84502D14FF0010903E06D1CEE
:10406000E06AA842F3D800BFB9F1010F0FD1E06AAE
:10407000401EA0EB050A00BF00BF0098FFF7F2F951
:1040800000BF00BF42F2107030805046D9E700BF39
:1040900000BF0098FFF7E6F900BF00BF42F288704A
:1040A00030805846CDE7000010B502460B46114659
:1040B000002001E0491C401C19B10C780CB1984259
:1040C000F8D310BD30B504464FF0FF312046FFF75E
:1040D000EBFF0546284630BD70B504460D46164632
:1040E0000CB9002070BD0DB90020FBE721462A461F
:1040F000002304E010780870491C521C5B1C21B19D
:104100001AB1107808B1B342F4D301B10AB9002052
:10411000E8E7B34201D2002008702046E2E770B51C
:1041200004460D464FF0FF3229462046FFF7D4FFE4
:104130000646304670BD70B503460C4615460BB9B1
:10414000002070BD0CB90020FBE70DB91846F8E758
:10415000194600E0491C11B108780028FAD109B9C4
:104160000020EEE72246002604E010780870491C83
:10417000521C761C21B11AB1107808B1AE42F4D3AA
:1041800001B10AB90020DCE7002008701846D8E722
:1041900070B504460D464FF0FF3229462046FFF722
:1041A000CAFF0646304670BD2DE9F04305460B4672
:1041B0009446BCF1000F02D10020BDE8F08335B970
:1041C0000BB90020F9E7187842421046F5E713B919
:1041D0002A781046F1E729461C460F4626467F1CE2
:1041E000761C4FF0000805E0491C641C7F1C761CFF
:1041F00008F10108087894F80090484505D108783E
:1042000018B117B10EB1E045EED3E04501D1002061
:10421000D3E7087894F80090484505D0087894F8DA
:104220000090A0EB09020BE0087808B9002207E033
:104230002FB90EB9002203E03078424200E03A780C
:104240001046BAE770B504460D464FF0FF322946D6
:104250002046FFF7A9FF0646304670BD2DE9F74F0F
:1042600082B080460E46049818B9002005B0BDE81B
:10427000F08FB8F1000F09D10EB90020F6E73078C1
:10428000FFF7FAF907467C422046EFE73EB998F877
:104290000000FFF7F1F905462C462046E6E7C14647
:1042A000B246C846C3465646CDF804A0D8460BF1E0
:1042B000010B019E701C0190C84699F80000FFF7A1
:1042C000DBF9054656469AF80000FFF7D5F9074690
:1042D0000020009015E009F101090AF1010A0BF133
:1042E000010B0198401C01900098401C009099F827
:1042F0000000FFF7C1F905469AF80000FFF7BCF986
:104300000746BD420BD199F8000040B1BBF1000F48
:1043100005D0019818B1049900988842DBD304991C
:104320000098884201D10020A0E7BD4201D0EC1BDB
:1043300016E00DB9002413E0BBF1000F0AD101987B
:1043400008B900240CE001990878FFF795F90746B1
:104350007C4205E09BF80000FFF78EF905462C46ED
:10436000204683E770B504460D464FF0FF322946DC
:104370002046FFF773FF0646304670BD30B5044651
:104380000B4615460CB9002030BD0BB90020FBE7E9
:104390002146002201E0491C521C31B1087820B1AD
:1043A0000878A84201D09A42F5D309B90020EBE77A
:1043B0009A4201D30020E7E70878A84201D0002004
:1043C000E2E70846E0E770B505460C4622464FF0A6
:1043D000FF312846FFF7D2FF0646304670BD2DE973
:1043E000F04305460E46174615B90020BDE8F08398
:1043F0000EB90020FAE72C46A6F1010949462046ED
:10440000FFF752FE804644440CB90020EEE700E07E
:10441000641EAC4202D02078B842F9D12078B8426C
:1044200001D00020E2E72046E0E770B505460C46E3
:1044300022464FF0FF312846FFF7D1FF06463046AF
:1044400070BD70B504460D4616460CB9002070BD0F
:104450000BB90020FBE721461A4605E00878A84280
:1044600000D10E70491C521E19B1087808B1002AFB
:10447000F4D12046EBE7F0B504460D4616464FF062
:10448000FF33324629462046FFF7DBFF0746384612
:10449000F0BD2DE9FF4F06460F4615461EB9002018
:1044A00004B0BDE8F08F0FB90020F9E70DB9002086
:1044B000F6E7681C00B101E04FF0FF300390294699
:1044C0003046FFF7F1FD804638460399FFF7ECFDD3
:1044D00004460CB93046E3E7444501D90020DFE744
:1044E00006EB080BBBF1000F01D10020D8E707EB6A
:1044F000040BBBF1000F01D10020D1E7A8EB0400B1
:1045000002904FF000090020019000BF06EB090067
:104510000090224639460098FFF746FE8246BAF1DF
:10452000000F01D1012000E00020019009F10109F4
:10453000019810B902988145E8D9BAF1000F01D06D
:104540000020ADE70098ABE770B504460D464FF08C
:10455000FF3229462046FFF79CFF0646304670BDD5
:104560002DE9FF4F8DB00F4615461A9E1D9818B9BC
:10457000002011B0BDE8F08F002003900490012FBF
:1045800001DA01200390022D01D3242D01D901204D
:10459000039096B33046FFF70BF80290029801287B
:1045A00002D00120039028E0302E26D0A6F1300062
:1045B000C0B207901B98012804D0A6F14100C0B2F8
:1045C000069003E0A6F16100C0B206900A2D02D861
:1045D0000798A84209DB0A2D09D907980A2804D3AD
:1045E000A5F10A000699884201D9012000E00020C7
:1045F00005900598012800D103901D9C0398002880
:1046000046D1DDF834A0DDF834A0CDF830A001208B
:104610000B9007E00B98401CC0B20B900C98B0FBBD
:10462000F5F00C900C98A842F4D21098012800D113
:1046300000E0002009900B9909980844B84225DC55
:10464000002001900B98B84201DA0B9800E0384640
:104650000A903EB1B8460A98391A0998081AC0B2A9
:10466000089006E0DDE90910084400F0FF0800208A
:1046700008900898002806DD302E01D1012000E0C6
:104680000020049004E00020049001E00120039049
:10469000039800B1B84644441C9808B1002020702B
:1046A000641E4FF0000941E00398A8BBBAF1000F67
:1046B00002D1B9F1000F1CD1BAFBF5F005FB10A037
:1046C00000F0FF0BBBF10A0F04D20BF1300004F82D
:1046D00001090BE01B98012804D00BF1370004F806
:1046E000010903E00BF1570004F80109BAFBF5FAE0
:1046F0001AE01098012810D1049808B9019828B13F
:10470000049850B1A8F10100484506D12D2004F8C5
:1047100001090120019007E003E02EB104F80169CE
:1047200002E03F2004F8010909F10109C145BBD3AA
:10473000039808B100201CE71D981AE72DE9FF5FD8
:1047400005460E4617461C46DDE90F9ADDF838800F
:1047500000233A46314628468DE81007FFF700FF50
:104760008346584604B0BDE8F09F2DE9FF4F85B061
:10477000044689461F46DDE913AB002C02DA654288
:10478000012601E02546002612983346CDE902AB0A
:10479000CDE9007049462846079AFFF7E1FE8046BA
:1047A000404609B0BDE8F08F2DE9FF4F8BB00646BB
:1047B00089461546B9F1000F02D10DF1240900BF59
:1047C000C9F80060189810B907A8189000BF002118
:1047D000189801701EB900200FB0BDE8F08F012DB0
:1047E00001D0242D01D90020F6E734462078FEF7C9
:1047F000CDFE039004E0641C2078FEF7C7FE039012
:1048000003980128F7D020782B2802D02D280BD12F
:1048100003E0641C4FF0000B09E00E98012800D162
:10482000641C4FF0010B02E04FF0000B00BF00BF13
:104830000A9425B1082D1CD0102D36D11EE0207809
:10484000302814D1641C2078582802D078280BD145
:1048500000BF102567783846FEF77CFE8246BAF125
:10486000010F00D1641C01E0082500BF00E00A250B
:104870001CE02078302800D1641C17E02078302814
:1048800012D1641C2078582802D078280AD100BFA1
:1048900067783846FEF75EFE8246BAF1010F00D116
:1048A000641C00E000BF00BF00E000BF00BF4FF08D
:1048B000000800200290019040E027783846FEF77B
:1048C000FBFD05900598012836D13846FEF72EFEEF
:1048D00006900698012804D1A7F13000C0B20890D4
:1048E0000FE03846FEF70EFE04900498012804D12C
:1048F000A7F15700C0B2089003E0A7F13700C0B29B
:1049000008900898A84214DA029880B9304850F804
:104910002500404509D308FB05F80898804408980D
:10492000804504D20120029001E001200290641C25
:1049300004E00120019001E001200190019800288D
:10494000BBD00298012801D14FF0FF380A98844269
:1049500002D0C9F8004001E0C9F80060189880F85A
:1049600000B0404638E7F8B504460D46164600202C
:1049700003463246294600902046FFF715FF0746BA
:104980003846F8BD2DE9FC4105460E46174601A8FC
:1049900001233A46314600902846FFF705FF0446BA
:1049A0009DF8040040B9B4F1004F02D36FF000400D
:1049B00000E02046804607E0B4F1004F02D34FF0FC
:1049C000004000E0604280464046BDE8FC810000B7
:1049D00000E20008002800D17047002900D170478C
:1049E000002A00D170472DE9F81F00F0030301F001
:1049F0000304A34211D1C3F1040303F00303012B09
:104A00001DD3012A00D2F2E011F8014B00F8014B4E
:104A1000A3F10103A2F10102F1E700F0010301F0AB
:104A20000104A34200D094E0012B44D311F8014BC0
:104A300000F8014BA3F10103A2F10102F4E7B2F582
:104A4000B47F26D3B1E8F81FA0E8F81FB1E8F81F3B
:104A5000A0E8F81FB1E8F81FA0E8F81FB1E8F81FB8
:104A6000A0E8F81FB1E8F81FA0E8F81FB1E8F81FA8
:104A7000A0E8F81FB1E8F81FA0E8F81FB1E8F81F98
:104A8000A0E8F81FB1E8F81FA0E8F81FA2F5B4727B
:104A9000D5E7282A06D3B1E8F81FA0E8F81FA2F14D
:104AA0002802F6E7042A06D351F8043B40F8043BF9
:104AB000A2F10402F6E7202A42D331F8023B20F8A3
:104AC000023B31F8023B20F8023B31F8023B20F870
:104AD000023B31F8023B20F8023B31F8023B20F860
:104AE000023B31F8023B20F8023B31F8023B20F850
:104AF000023B31F8023B20F8023B31F8023B20F840
:104B0000023B31F8023B20F8023B31F8023B20F82F
:104B1000023B31F8023B20F8023B31F8023B20F81F
:104B2000023B31F8023B20F8023B31F8023B20F80F
:104B3000023B31F8023B20F8023BA2F12002BAE727
:104B4000022A06D331F8023B20F8023BA2F102020E
:104B5000F6E7102A42D311F8013B00F8013B11F8A7
:104B6000013B00F8013B11F8013B00F8013B11F853
:104B7000013B00F8013B11F8013B00F8013B11F843
:104B8000013B00F8013B11F8013B00F8013B11F833
:104B9000013B00F8013B11F8013B00F8013B11F823
:104BA000013B00F8013B11F8013B00F8013B11F813
:104BB000013B00F8013B11F8013B00F8013B11F803
:104BC000013B00F8013B11F8013B00F8013B11F8F3
:104BD000013B00F8013BA2F11002BAE7012A06D31B
:104BE00011F8013B00F8013BA2F10102F6E7BDE834
:104BF000F81F7047154816481648174817481848B0
:104C00001848194819481A481A481B481B481C4894
:104C10001C481D481D481E481E481F481F48204864
:104C20002048214821482248224823482348244834
:104C30002448254825482648264827482748284804
:104C400028482948294800BF7047000034E300087D
:104C500094E2000898E200089CE20008A0E2000844
:104C6000A4E20008A8E20008ACE20008B0E20008F4
:104C7000B4E20008B8E20008BCE20008C0E20008A4
:104C8000C4E20008C8E20008CCE20008D0E2000854
:104C9000D4E20008D8E20008DCE20008E0E2000804
:104CA000E4E20008E8E20008ECE20008F0E20008B4
:104CB000F4E20008F8E20008FCE2000800E3000863
:104CC00004E3000808E300080CE3000810E3000810
:104CD00014E3000818E300081CE3000820E30008C0
:104CE00024E3000828E300082CE3000830E3000870
:104CF000002400BF19E000BF00BFFEF7AFFB044671
:104D000000BF00BFF7480068401CF6490860F6483D
:104D10000068401CF449086000BF00BF2046FEF751
:104D2000A1FB00BF00BF07F083FBE4E710B58AB02A
:104D300004460020EB4908600B2000210591CDE9D5
:104D4000070406910846E9490968E94A1268E94BEF
:104D50001B68CDE90132CDE903103F200023AFF2FB
:104D60006F02E5A10090E94804F08EFD0AB010BD85
:104D700000210AE001EB4102E54B03EB8200002237
:104D80000281026042604A1CD1B24029F2D37047CE
:104D900070B5044607F054FB0020DE490870DE4978
:104DA0000870DE490870DE490860DE490860DE49A7
:104DB0000870DE490870DE490870DE490860DE4987
:104DC0000860DE490860DE490870DE4800680A2194
:104DD000B0FBF1F0DC490860DC48006858B1DC4801
:104DE000056845B1D948066803E0761E00202860B2
:104DF0002D1D002EF9D10020D6490860D649086043
:104E0000D6490860D6490860D6490860D649086086
:104E1000D6490860D649087003F016F8FFF7A8FFD6
:104E2000204601F03FFE208800B170BD204602F010
:104E30007AF9208800B1F8E7204602F0A0F920882E
:104E400000B1F2E7204602F0E7FF208800B1ECE76E
:104E5000204603F093FC208800B1E6E7204604F0EA
:104E6000A9F8208800B1E0E7204606F07DF9208807
:104E700000B1DAE7204601F09AFF208800B1D4E7BC
:104E80002046FFF753FF208800B1CEE7204606F00A
:104E9000C2FA208800B1C8E7204604F044FB20880D
:104EA00000B1C2E7204607F01EFA208800B1BCE737
:104EB00000F020FEFFF79EFE00BFB6E796480078A0
:104EC000012800D0704793480078FA2800DBF9E702
:104ED00090480078401C8F49087000BFF2E710B579
:104EE00000248D480078012800D010BD00BFFEF7D7
:104EF000B5FA044600BF8748007828B900BF2046AD
:104F0000FEF7B0FA00BFF0E782480078401E814902
:104F1000087008460078002805DD00BF2046FEF72F
:104F2000A1FA00BFE1E77D480078002805DD00BF59
:104F30002046FEF797FA00BFD7E702F08FFF7B49C4
:104F400008700846007800EB4000714951F82000D5
:104F5000744908600846006871490968884205D1AB
:104F600000BF2046FEF77EFA00BFBEE76D4800682E
:104F7000D0F89000401C6B490968C1F890007D484A
:104F80000068401C7B4908604FF080507A490860F7
:104F900000BF2046FEF766FA00BF00BFA5E710B5C8
:104FA00000245C480078002800DD10BD5B480078D4
:104FB000002800DDF9E700BFFEF750FA044600BF05
:104FC00002F04CFF594908700846007800EB400099
:104FD0004F4951F82000534908600846006850497D
:104FE0000968884205D100BF2046FEF73BFA00BFA2
:104FF000DBE74C480068D0F89000401C494909683C
:10500000C1F890005B480068401C5A4908604FF0A6
:1050100080505949086000BF2046FEF723FA00BFC0
:1050200000BFC2E710B53D480078012803D1FEF764
:1050300099F84049086010BD70B504460025354810
:105040000078002803DD46F66250208070BD3248AB
:105050000078012803D045F689602080F6E72F48C4
:105060000078FA2803DB45F209202080EEE700BF34
:1050700000BFFEF7F3F9054600BF00BF27480078E0
:10508000401C26490870FFF7CDFF00BF00BF28462F
:10509000FEF7E8F900BF00BF0020208000BFD5E781
:1050A00010B51E48007880B9FEF75CF82149096800
:1050B000441A21480068A04201D21F4804601F48DA
:1050C0000068A04201D21D48046010BD70B50446BE
:1050D000002510480078002850DD46F665502080F5
:1050E00070BD00005C000020C00000209CE20008B1
:1050F00098E2000894E2000875432F4F532D494968
:10510000492049646C65205461736B00D8340020D9
:105110006C3600206000002061000020A800002004
:1051200000010020040100208E0000208F000020DC
:10513000900000209C000020A0000020A40000207F
:10514000B0000020F4E20008AC000020C4E2000837
:10515000C0E2000840000020440000204800002079
:105160004C00002050000020540000205800002077
:10517000DE000020D400002004ED00E0F9480078B3
:10518000012803D045F68960208070BDF64800787C
:1051900018B946F664502080F7E700BF00BFFEF75D
:1051A0005DF9054600BF00BFEF480078401EEE499C
:1051B00008700846007800280ADD00BF00BF2846B6
:1051C000FEF750F900BF00BF46F663502080DCE7D1
:1051D000FFF766FF00BF00BF2846FEF743F900BF98
:1051E00000BFFFF7DCFE0020208000BFCDE72DE9E7
:1051F000F04105460C461646002700BF00BFFEF7EB
:105200002DF9074600BF00BF012D03D00020D7496C
:10521000087002E00120D549087014B1D448046038
:1052200006E0D44800680A21B0FBF1F0D0490860DC
:1052300000BF00BF3846FEF715F900BF00BF0020D1
:105240003080BDE8F08110B501460C8924B1012CF5
:1052500003D0022C0CD101E000BF14E008684A68BA
:1052600002610024C4601461D0600A6048600AE0F2
:1052700008684A68C36800241C61C4600261D06089
:105280000B60486000BF00BF10BD2DE9F04104462F
:105290000027B9480078002804DD48F2D14020807A
:1052A000BDE8F081B0480078002803DD46F6635081
:1052B0002080F5E7AD480078012803D046F67B1042
:1052C0002080EDE700BF00BFFEF7C8F8074600BF2B
:1052D00000BFAA48007800EB4000A94901EB800616
:1052E000308902280ADA00BF00BF3846FEF7BAF854
:1052F00000BF00BF46F67A102080D1E73046FFF7A6
:10530000A2FF3568686D18B999480068A86501E082
:10531000686DA86500BF00BF3846FEF7A3F800BF60
:1053200000BFFFF73CFE0020208000BFB8E710B5AB
:1053300004468C480078E8B902F090FD9149087065
:10534000084600788D4908708E48007800EB4000D0
:105350008B4951F820008C490860084600688B4949
:10536000086001207F49087008F0DCFC43F69920B2
:10537000208002E045F68A60208010BD01460020B2
:10538000088047F25C60704730B548B14568C1F8A5
:10539000C05000F10804226893681D6AC56113E0DB
:1053A00091F83450022D02D0072D08D103E078A5E2
:1053B000C1F8C05007E078A5C1F8C05003E079A556
:1053C000C1F8C05000BF00BF30BDF0B58E6896F880
:1053D000375007893FB90127078100274F600F60C9
:1053E0000160416023E007897F1C0781026806E0B5
:1053F000946894F83770AF4200DD02E05268002AEA
:10540000F6D100BF32B900274F6043680B60596086
:1054100041600CE017682FB9116000270F604A60E7
:10542000016004E013680B604A6059601160F0BDD0
:1054300010B5C287016300230AE000244C600C60B1
:105440000C614C610C83CC61886020315C1CA3B280
:105450009342F2DB10BD2DE9F041054695F8370087
:1054600000EB4000464901EB80042F69EE6887B9E4
:1054700046B9002020812060606095F8370002F076
:105480000FFD0EE02089401E208100203061266043
:1054900007E02089401E2081FE600EB9676000E0B1
:1054A000376100202861E860BDE8F08138B5044626
:1054B0000D4685B16B4602222946204605F0ECFFD9
:1054C000BDF8000018B9032084F8360006E0022079
:1054D00084F8360002E0022084F836002046FFF708
:1054E000BAFF38BD2DE9F04105460C4616461F4669
:1054F0002648006880F8346000202449096881F853
:105500003500394621480068FFF7D0FF6CB104F13F
:105510000808EC60012229461C480068FFF788FF54
:1055200029464046FFF751FF06E000201749096869
:10553000C887164909680863144801682046FFF7C0
:1055400023FFBDE8F08110B50489012C03D10024AC
:105550000460446033E00C6834BB4A680024146083
:1055600002602CE061000020A8000020B0000020B4
:10557000AC000020F4E20008600000208E00002053
:105580006C3600208F000020040100200001002064
:105590005461736B205100005461736B2053656D2F
:1055A00000000000200000004C6824B90B680024B3
:1055B0005C60436003E00B684A685A6013600489CA
:1055C000641E048100244C600C6010BD2DE9F04184
:1055D0000446256BE68F0AE0D5F80C8008F1080731
:1055E00029463846FFF7AFFF2035701E86B2002EE1
:1055F000F2DC0020E0872063BDE8F08130B503468F
:10560000086BCC8F08E0C5689D4202D10361C2617E
:1056100004E02030651EACB2002CF4DC00BF30BDCD
:1056200010B590F8373003EB4303F74C04EB8301DC
:105630000B893BB901230B810023C3600361086020
:10564000486009E00B895B1C0B810B68C360002379
:1056500003610A681061086010BD10B590F837301A
:1056600003EB4303E84C04EB83010B893BB90123B3
:105670000B810023C36003610860486008E00B8968
:105680005B1C0B810023C3604A680261D0604860E4
:1056900010BD10B5044694F8370002F0F1FB94F801
:1056A0003700DA490978884203D12046FFF7D5FF51
:1056B00002E02046FFF7B4FF10BD10B504462046B7
:1056C00005F07AFD94F8360000F0040010B9204689
:1056D000FFF7DFFF10BD70B505460C46164694F87F
:1056E0003600082847D2DFE800F00405080906075D
:1056F000272800BF00BF00BF3EE000BF94F8340081
:10570000032804D1324621462846FFF777FF0020C0
:10571000E065A4F86000266415B12046FFF756FF47
:105720002046FFF7CAFF00203434A07001206070CB
:10573000002004F834091FE000BF94F83400032867
:1057400004D1324621462846FFF758FF0020E06585
:10575000A4F86000266415B12046FFF737FF204605
:1057600005F02AFD04203434A07001206070002070
:1057700004F8340900E000BF00BF70BD30B5AFF2DF
:10578000DC15C1F8C05000F1080422681AB1936812
:105790001D6AC56102E0AFF2F415C56130BD2DE9A7
:1057A000F04304460F4684F83770256BB4F83E800A
:1057B00013E0D5F80C9009F108063089012807D9C3
:1057C00029463046FFF7BFFE29463046FFF7FDFD6C
:1057D0002035A8F101001FFA80F8B8F1000FE8D1D8
:1057E000BDE8F083002101604160018170470389B9
:1057F0005B1C038103684B6000230B60026802B1ED
:10580000116001600389012B00D14160704730B500
:105810000346086BCC8F08E0C5689D4202D1036146
:10582000C26104E02030651EACB2002CF4DC00BF85
:1058300030BD70B506460C46154694F8360008286B
:1058400045D2DFE800F0040508090607262700BF57
:1058500000BF00BF3CE000BF94F83400032804D12F
:105860002A4621463046FFF7D2FF0020E065A4F823
:10587000600025642046FFF7A9FE2046FFF71DFFC4
:1058800000203434A07002206070002004F8340935
:105890001EE000BF94F83400032804D12A462146B4
:1058A0003046FFF7B4FF0020E065A4F860002564EF
:1058B000204605F081FC2046FFF788FE04203434A2
:1058C000A07002206070002004F8340900E000BFDE
:1058D00000BF70BDF0B50446059E086BCD8F0AE091
:1058E000C768A74204D1046142610383C66104E032
:1058F00020306F1EBDB2002DF2DC00BFF0BD2DE9DF
:10590000F84306460C4617469846089D94F836001C
:10591000082850D2DFE800F00405080906072B2C00
:1059200000BF00BF00BF47E000BF94F83400032869
:1059300007D143463A46214630460095FFF7CAFF55
:1059400003E0E765A4F86080256436B12046FFF7E0
:105950003DFE21463046FFF711FF2046FFF7ADFE22
:1059600000203434A070607004F8340924E000BFD3
:1059700094F83400032807D143463A46214630467E
:105980000095FFF7A7FF03E0E765A4F860802564B2
:10599000204605F011FC36B12046FFF717FE2146E0
:1059A0003046FFF7EBFE04203434A0700020607016
:1059B00004F8340900E000BF00BFBDE8F88310B56B
:1059C000002400BFFDF74AFD044600BF0020104937
:1059D000087010481049086008460068D0F8900028
:1059E000401C0968C1F890000C480068401C0B4935
:1059F00008604FF080500A49086000BF2046FDF75C
:105A000031FD00BF10BD00006C3600208E0000206C
:105A10008F0000209C35002004010020D4000020CD
:105A200004ED00E070B5054600262E4800780128F8
:105A300000D070BD00BF00BFFDF710FD064600BFDF
:105A400000BF2C683CB900BF00BF3046FDF70AFD1F
:105A500000BF00BFEDE72448844207D100BF00BF6C
:105A60003046FDF7FFFC00BF00BFE2E7A06D10B1BC
:105A7000A06D401EA065A06D38B100BF00BF3046CC
:105A8000FDF7F0FC00BF00BFD3E72889022807DA42
:105A900000BF00BF3046FDF7E5FC00BF00BFC8E710
:105AA00012480078002807DD00BF00BF3046FDF730
:105AB000D9FC00BF00BFBCE72846FFF7C4FB2C6839
:105AC000606D18B90A480068A06501E0606DA065C6
:105AD00000BF00BF3046FDF7C5FC00BF00BF00BFE0
