:020000040800F2
:10000000186500209D850008B7020008B9020008A5
:10001000BD020008C1020008C5020008000000007F
:10002000000000000000000000000000C9020008FD
:10003000CB020008000000000B590108758400087D
:10004000B7850008B7850008B7850008B7850008A0
:10005000B7850008B7850008B7850008B785000890
:10006000B7850008B7850008B7850008B785000880
:10007000B7850008B785000869240008CD25000869
:10008000B7850008B7850008B7850008B785000860
:10009000B7850008B7850008B7850008B785000850
:1000A000B7850008B7850008B7850008B785000840
:1000B0000F7E0008991C0008B7850008B785000866
:1000C000B7850008B7850008B7850008B785000820
:1000D000B7850008F5260008B7850008B785000831
:1000E000B7850008B7850008B7850008B785000800
:1000F000B7850008B7850008B7850008B7850008F0
:10010000B7850008B7850008B7850008B7850008DF
:10011000B7850008B7850008B7850008B7850008CF
:10012000B7850008B7850008B7850008B7850008BF
:1001300000F002F800F0B0F80AA090E8000C824449
:100140008344AAF10107DA4501D100F0A5F8AFF226
:10015000090EBAE80F0013F0010F18BFFB1A43F0A5
:1001600001031847A8830100C88301000A444FF027
:10017000000C10F8013B13F0070408BF10F8014B06
:100180001D1108BF10F8015B641E05D010F8016B4B
:10019000641E01F8016BF9D113F0080F1EBF10F8AF
:1001A000014BAD1C0C1B09D16D1E58BF01F801CBD2
:1001B000FAD505E014F8016B01F8016B6D1EF9D555
:1001C0009142D6D37047000000230024002500266A
:1001D000103A28BF78C1FBD8520728BF30C148BFAA
:1001E0000B6070476E2914F0CC82702914F08B815B
:1001F000662916F0E882652916F0E582672916F06F
:10020000E2826129AFF3008003681B0A28BF41F036
:100210008001692914F0FC80642914F0F9807529A3
:1002200014F0F6806F2914F0D985782914F05781DD
:10023000E92914F07385E42914F07085F52914F088
:100240006D85EF2914F0D685F82914F056810368DE
:10025000DB0928BF41F08001632914F0E28473298F
:1002600014F0E784E32914F06386F32914F0688618
:10027000002070471FB514F0C7FD040000200021C6
:1002800015F0A6FB401C60600020002115F08AFBE1
:10029000E0601FBD10B510BD14F0ECFE1146FFF775
:1002A000E9FF00F09FF914F013FF03B4FFF7F2FF2A
:1002B00003BC02F0C7FA704700BFFEE700BFFEE7CD
:1002C00000BFFEE700BFFEE7704770479CB0002408
:1002D00044E0FD48006816F033F80546FB4AFC4B45
:1002E00015F046FE074615F089FB0446204616F039
:1002F000C1F83C2190FBF1F201FB1205204616F0FB
:10030000B9F83C2190FBF1F6204616F0B3F84FF413
:10031000616190FBF1F733463A46EEA102A80095E1
:1003200014F010F84FF47840F049088002A8182122
:100330000B464FF49672CDE900100021084607F0F5
:100340000CF802F091FA00F0B5FC1BA80021012383
:100350000A46CDE90010084612F0E7FFB9E79EB063
:100360000025A846002452E007F08DFC05462A46E9
:10037000DFA104A813F0E6FF04A818210B464FF4F0
:100380009672CDE90010F021002006F0E6FF07F09C
:1003900041FF8046404615F0D3FF064632460B46E5
:1003A000D9A104A813F0CEFF04A818210B464FF4DE
:1003B0009672CDE900104FF48771002006F0CDFF52
:1003C00008F02FF804462246D4A104A813F0BAFF7F
:1003D00004A818210B464FF49672CDE9001011467F
:1003E000002006F0BAFF404615F0AAFF2A468DE825
:1003F0001300D0A1D64801F09DFE1DA800214FF4A6
:10040000FA730A46CDE90010084612F08EFFABE7FA
:100410000EB51DE002A813F061F9804615F094FDB9
:100420000646CC4ACC4B15F0A3FD044615F0E6FA7F
:10043000A549086000BF00F04FFE0028FBD102A8CC
:10044000002105230A46CDE90010084612F06DFF91
:10045000E0E70EB50AE000F02BFD02A8002105231D
:100460000A46CDE90010084612F05FFFF3E730B509
:100470008BB00446002500BF0AF06EFC0AA810F0FD
:10048000E2FB0AAA012108460CF067FC00BF00BF8E
:1004900000BF0AF099FD054600BF00BFAF480078D5
:1004A000401CAE49087000BF00BF28460AF090FD0E
:1004B00000BF00BF00BF0AA8032100220123CDE92D
:1004C0000532CDE90710104659023322A44BCDE97D
:1004D0000132CDE9031004200023AFF28902A1A16B
:1004E0000090A34810F086FF0AA8032100220123F0
:1004F000CDE90532CDE907101046590233229D4B54
:10050000CDE90132CDE9031004200023AFF2FF0250
:1005100099A100909A4810F06DFF0AA803210022CB
:100520000123CDE90532CDE90710104680210C22C8
:10053000944BCDE90132CDE9031004200023AFF242
:10054000E11291A10090934810F054FF0AA80321F2
:1005500000220123CDE90532CDE90710104619022A
:1005600019228D4BCDE90132CDE90310042000237F
:10057000AFF2A72289A100908A4810F03BFF0AA998
:10058000894812F0ACFA00BF00BF00BF0AF01CFDA2
:10059000054600BF00BF71480078401E6F490870D3
:1005A00008460078A0B981480088002809DD00BF0E
:1005B00000BF28460AF00CFD00BF00BF0CF0B5FFDD
:1005C0000DE000BF00BF28460AF002FD00BF06E0B4
:1005D00000BF00BF28460AF0FBFC00BF00BF00BF01
:1005E0000BB030BD8AB0002407F050FF4FF4A0607C
:1005F00007F0F4FF0121084608F07EFD01F02AFF14
:1006000003F059F800F02CFB02F043F906214FF4F7
:100610007A7001F04CFB07F0BDFC022007F0BCFA39
:1006200007F040FB09A80CF069F900BF00BF00BF4C
:100630000AF0CAFC044600BF00BF48480078401CCE
:100640004649087000BF00BF20460AF0C1FC00BF49
:1006500000BF00BF09A8032100220592CDE90621B1
:10066000089010464FF400713322514BCDE901320E
:10067000CDE9031003200023AFF20D224DA100901D
:10068000494810F0B7FE00BF00BF00BF0AF09CFC55
:10069000044600BF00BF31480078401E2F49087053
:1006A0000846007868B94148008800280ADD00BF84
:1006B00000BF20460AF08CFC00BF00BF0CF035FFE5
:1006C0008CE084E07CE00000000000209A99999979
:1006D0009999B93F54696D65203A202564206820B6
:1006E0002564206D20256420732E0000E601002083
:1006F000696C6C756D696E6174696F6E3A20256402
:10070000206C75780000000074656D70657261740E
:100710007572653A2025332E31662000736F696C3F
:100720005F6D6F6973747572653A202564202525A5
:10073000000000007C693A2564206C75787C743A6E
:1007400025322E3166207C733A256425257C0000F5
:10075000003801407B14AE47E17A943FA0020020AC
:10076000980C00204D6F7665207461736B0000005B
:10077000D00B0020601500205243207461736B0081
:1007800098140020281E00204C696768742074614A
:10079000736B0000601D0020B829002055492074AB
:1007A00061736B00F0280020080300206402002021
:1007B000D00300207374617274207461736B000045
:1007C00000BF00BF20460AF003FC00BF06E000BFE8
:1007D00000BF20460AF0FCFB00BF00BF00BF09A815
:1007E0000CF05BFB00BFFEE79EB000201C9054E0C5
:1007F0009DF87000401CC0B21C901CA800F07DFD4C
:100800002648006826490968CDE900102548036894
:10081000254826A1026803A813F094FD03A8182117
:100820000B464FF4AF72CDE900109621002006F080
:1008300094FD2248006822490968CDE9001021484A
:100840000368214821A1026803A813F07BFD03A8D7
:1008500018210B464FF4AF72CDE90010B4210020EF
:1008600006F07BFD1D48B0F900201DA103A813F080
:1008700069FD03A818210B464FF4AF72CDE90010B3
:10088000D221002006F069FD1DA8002105230A469B
:10089000CDE90010084612F048FDA9E754000020F9
:1008A000500000204C000020480000204C3A202539
:1008B0006420256420256420256400009400002025
:1008C000900000208C00002088000020523A202553
:1008D000642025642025642025640000FC0000209D
:1008E0004572726F723A20252D3964000CB50020D4
:1008F000019000906C48006840F480306A490860BC
:1009000000BF6948006800F4003000900198401C66
:100910000190009818B90198B0F5706FF1D1624854
:10092000006800F4003010B10120009001E00020C8
:1009300000900098012843D15C48006840F0100006
:100940005A4908600846006820F00300086008461D
:10095000006840F00200086053484068524948600F
:100960000846406848600846406840F48060486037
:100970000846406820F47C1048600846406840F40F
:10098000E81048600846006840F08070086000BFCA
:100990004548006800F000700028F9D042484068DF
:1009A00020F00300404948600846406840F00200DB
:1009B000486000BF3C48406800F00C000828F9D1AE
:1009C0000CBD10B5FFF792FF10BD10B5364800689A
:1009D00040F0010034490860084640683449084046
:1009E0003149486008460068324908402E4908608D
:1009F0000846006820F4802008600846406820F41B
:100A0000FE0048604FF41F008860FFF7DAFF4FF0E8
:100A100000602949086010BD10B5002100200022A7
:100A2000214B5B6803F00C0121B1042906D0082991
:100A300028D107E0214B224C236027E0214B204C9A
:100A4000236023E0184B5B6803F47010164B5B685F
:100A500003F48032022303EB904022B91A4B434344
:100A6000174C23600DE0104B5B6803F4003323B197
:100A7000164B4343124C236003E0124B4343104C8C
:100A8000236003E00D4B0E4C236000BF00BF064BFC
:100A90005B68C3F303130E4CE15C094B1B68CB404E
:100AA000074C236010BD00000010024000200240EF
:100AB0000000FFF8FFFFF6FE08ED00E000127A00EC
:100AC00010000020001BB70000093D00808D5B0076
:100AD000140000200021016041608160C160704706
:100AE00010B501460A684B68D05C4A68521CCB6856
:100AF000B2FBF3F403FB14224A6010BD0146886880
:100B0000401CCA68B0FBF2F302FB13004A68904233
:100B100001D1012070470020FCE730B504460D46A6
:100B20002046FFF7EBFF50B92068A1684554A06844
:100B3000401CE168B0FBF1F201FB1200A06030BD87
:100B4000F0B507460D461646002400BF05E0295DB6
:100B50003846FFF7E2FF601C84B2B442F7DBF0BD19
:100B6000014648688A68904201D101207047002000
:100B7000FCE78168491CC268B1FBF2F302FB131168
:100B800081607047F0B585B004460D4605F0010060
:100B900080B104F108026CA102A813F0D3FB02A8F3
:100BA00018210B46D222CDE900104FF4B971002074
:100BB00006F0D3FB05F00200A8B12168086815F023
:100BC000BFFB064632460B4661A102A813F0BAFBF2
:100BD00002A818210B46D222CDE900104FF4D7719C
:100BE000002006F0BAFB05F00400A0B1606815F023
:100BF000A7FB064632460B4657A102A813F0A2FBFC
:100C000002A818210B46D222CDE900104FF4C8717A
:100C1000002006F0A2FB05B0F0BD30B5002304684B
:100C2000146000BF07E000F10804E55C02F108046D
:100C3000E5545C1CE3B20F2BF5DB446854600C6890
:100C400054B10C68E469D4610C68E469A2610C6871
:100C5000E2610C68946101E0D26192610A6030BD8A
:100C600010B58AB0002001903F4C404802904FF0F0
:100C70007E5003903EA104A813F064FB224620346A
:100C800001A902A8FFF7C9FF3C4802904FF07E502F
:100C900003903BA104A813F055FB2246203401A980
:100CA00002A8FFF7BAFF07212F48FFF76BFF0AB032
:100CB00010BD704710B501F006FE044604F00400B4
:100CC00048B13248006880693049086007212F48E0
:100CD0000068FFF757FF04F0020048B12B48006896
:100CE000C0692A490860072128480068FFF74AFFC1
:100CF00004F0080088B1254A12685168234A126836
:100D00001268106815F048FB2049096809680860F6
:100D100002211E480068FFF735FF04F0010088B18A
:100D20001A4A12685168194A12681268106815F058
:100D3000D5FC164909680968086002211348006853
:100D4000FFF720FF10BD0000252D397300000000C3
:100D5000252D392E32660000737465703A20252DDA
:100D6000392E326600000000B82D0020040000205B
:100D7000746573745F706172613100000800002057
:100D8000746573745F706172613200002C00002022
:100D90002DE9FF5F04468946A06815F0D1FA0022CC
:100DA0004F4BCDE9020115F0E3F8074688464FF0B6
:100DB0007E50616815F0C6FB02900020216815F096
:100DC000C1FB0190029915F0E7FA039015F0B8FA0B
:100DD00082463A46434614F043FE054614F00EFEA2
:100DE000C9F80000A06815F0ABFA074600223C4B9A
:100DF00015F0BEF805460E464FF07C50616815F0C0
:100E0000A1FB80463748216815F09CFB41460190C4
:100E100015F064FC074615F093FA2A463346CDE9EF
:100E2000020114F01DFE824614F0E8FDC9F804002A
:100E3000A06815F085FA05460022294B15F098F8B0
:100E4000CDE902014FF07C50616815F07BFB06464E
:100E50002548216815F076FB3146019015F03EFCDF
:100E6000054615F06DFA0746DDE9022314F0F8FD9A
:100E7000824614F0C3FDC9F80800BDE8FF9F10B515
:100E800004461A49E068086020694860606980F09B
:100E90000040886016491548FFF77AFF144800683B
:100EA000206013484068606011488068A06010BDF1
:100EB00070B51048FFF7E3FF0E49886815F0DAFABD
:100EC00004460C49486815F0D5FA054609490868F2
:100ED00015F0D0FA06462246294600F0BDFF70BD47
:100EE0000000E03FD0B35DBFD0B35D3F5030002085
:100EF0005C300020383000202DE9F8430446684675
:100F000012F0ECFB814615F01FF80746B84AB94BC2
:100F100015F02EF8054614F071FDB74908602078E9
:100F200000F01000002830D0B4480168B2480068D2
:100F300015F032FAB2490860641C206815F000FA16
:100F400007460022AF4B15F013F8054614F056FD86
:100F5000AD49C860606815F0F3F907460022A94B57
:100F600015F006F8054614F049FDA7490861A06888
:100F700015F0E6F907460022A24B14F0F9FF0546EA
:100F800014F03CFDA049486194E0207800F0200076
:100F90000028F9D0641C20780B287BD2DFE800F011
:100FA00088061626374858697B7F83009348016876
:100FB0009148006815F0F0F991490860934892490A
:100FC000C860002190480161416172E08B4801686E
:100FD0008948006815F0E0F9894908608C488A4919
:100FE000C860002188480161416162E0834801686E
:100FF0008148006815F0D0F98149086000208249D5
:10100000C8608349804801610021416151E07B480B
:1010100001687948006815F0BFF979490860002037
:101020007949C8607949784801610021416140E00F
:10103000724801687048006815F0AEF970490860A0
:1010400000207149C86000216F480161416130E0B2
:101050006A4801686848006815F09EF968490860A8
:1010600000206949C8600021674801616749416102
:101070001FE0624801686048006815F08DF960491A
:10108000086000206049C86000215F480161604934
:1010900041610EE00CE0012006F01FFE09E0002097
:1010A00006F01BFE05E044F2715006F001FF00E07F
:1010B00000BF00BFBDE8F88310B54F480168504835
:1010C000006815F00BFA06D200204F49C8600021D5
:1010D0004D480161416110BD10B5FFF7EDFF4D486E
:1010E000FFF73EFD08B1002010BD4A48FFF7F8FCAD
:1010F000494908704948007830B1012814D00228C5
:1011000037D003286DD150E04348007855280AD1E4
:101110000120424908700020414908804149086087
:1011200055204149088060E03B48007800F00F00FE
:101130000C281ADC384801783A4802680068401CDC
:10114000384B1860394881543348007800F00F005C
:1011500033490880344800882F49097808443249C7
:10116000088002202D49087002E000202B490870F9
:101170003BE0294801782B4802680068401C294B55
:1011800018602A488154284800882349097808446F
:10119000254908801846016821480088401C814282
:1011A00002D303201D4908701FE01F480088FF215B
:1011B00090FBF1F201FB12001B49088008460088F1
:1011C00015490978884208D11848FFF795FE002094
:1011D000154908801149087002E000200F49087085
:1011E00003E000200D49087000BF00BF01207BE72D
:1011F0007B14AE47E17A943F0000002034000020C9
:101200003000002000C072403830002000009643BB
:10121000000096C31C31002044000020380000204C
:101220003C000020400000203A00002068300020F0
:101230002DE9FF5F81460C464FF0000BFE4830F968
:1012400014A0FE4800EBC401FD4800EBC400D1E946
:1012500000532A46D0E90071384614F001FCF84AE0
:1012600002EBC40203C2F74800EBC401F448D1E921
:10127000005300EBC401D1E900712A46384614F04E
:10128000EFFBCDE90001EE4800EBC401D1E90051CC
:101290002846DDE9002314F08BFCCDE9020114F0AF
:1012A000ADFB8346A9EB0A0015F000F90646594646
:1012B00015F048F9054615F0DDF850440FFA80F9AD
:1012C00059464FF07E5015F009FA074615F038F8E8
:1012D0000546DB4800EBC400D0E900733A462846D7
:1012E00014F046FED64A02EBC40203C2D24820F8EC
:1012F0001490484604B0BDE8F09F2DE9F0478146C0
:1013000099F8000001282DD106F034F94FF47A71D4
:10131000B0FBF1F0CC490860032006F02BF94FF444
:101320007A71B0FBF1F0C9490860052006F022F996
:101330004FF47A71B0FBF1F0C5490860072006F060
:1013400019F94FF47A71B0FBF1F0C249086001223B
:1013500034211A2006F03CF8012214211A2006F04C
:101360003EF934E099F80000022830DB002089F8CB
:101370000000012006F002FA4FF47A71B0FBF1F0A0
:10138000B5490860032006F0F9F94FF47A71B0FB13
:10139000F1F0B2490860052006F0F0F94FF47A71D7
:1013A000B0FBF1F0AE490860072006F0E7F94FF412
:1013B0007A71B0FBF1F0AB490860012234211A20A8
:1013C00006F00DF9012214211A2006F001F8A648B2
:1013D0000068322863DAA44800680A2820DA9A48AC
:1013E0000068A249086099480068A14908609848C7
:1013F0000068A0490860974800689F4908609948BC
:1014000000689E490860964800689D4908609348B6
:1014100000689C490860904800689B49086037E074
:1014200092480068884909680844904908609048D3
:1014300000688649096808448D4908608D4800683D
:101440008349096808448B4908608B4800688149D2
:101450000968084488490860884800688149096823
:10146000084486490860864800687D490968084440
:1014700083490860834800687849096808448149BD
:101480000860814800687449096808447E4908601A
:1014900075480068401C74490860BDE8F0877248D0
:1014A000006832283CD1714800682921B0FBF1F076
:1014B000764908606E4800682921B0FBF1F0744954
:1014C00008606C4800682921B0FBF1F071490860A0
:1014D000694800682921B0FBF1F06F49086067484E
:1014E00000682921B0FBF1F06C490860644800688D
:1014F0002921B0FBF1F06A4908606248006829219F
:10150000B0FBF1F0674908605F4800682921B0FB33
:10151000F1F06549086054480068401C5249086071
:101520004948008859490988401A00B25F49088033
:101530004648008856490988401A00B25C4908802C
:101540004348008853490988401A00B25949088025
:101550004048008850490988401A00B2564908801E
:10156000404800884D490988401A00B25349088014
:101570003B4800884A490988401A00B2504908800F
:101580003648008847490988401A00B24D4908800A
:101590003148008844490988401A00B24A49088005
:1015A0004248B0F90000372811DA4048B0F900008D
:1015B00010F1050F0BDD3D48B0F9000000EB800095
:1015C00080001A2190FBF1F000B2404908803848B1
:1015D000B0F90000372811DA3548B0F9000010F1F1
:1015E000050F0BDD3248B0F9000000EB80008000F1
:1015F000182190FBF1F000B2354908802D48B0F970
:101600000000372811DA2B48B0F9000010F1050F5F
:101610000BDD2848B0F9000000EB800080001621A7
:1016200090FBF1F000B22B4908802348B0F900008C
:10163000372862DA20484FE00A31002058010020A4
:101640001801002098010020480000204C000020D4
:101650005000002054000020940000209000002042
:101660008C00002088000020D801002068000020A5
:101670006C0000207000002074000020A8000020F2
:10168000AC000020B0000020B40000205800002072
:101690005C00002060000020640000209800002012
:1016A0009C000020A0000020A4000020C800002012
:1016B000CA000020CC000020CE000020D000002076
:1016C000D2000020D4000020D6000020D800002046
:1016D000DA000020DC000020B0F9000010F1050F56
:1016E0000BDDFA48B0F9000000EB80008000142107
:1016F00090FBF1F000B2F6490880F648B0F900001E
:10170000372811DAF348B0F9000010F1050F0BDDAE
:10171000F048B0F9000000EB800080001C2190FB35
:10172000F1F000B2EC490880EC48B0F9000037282D
:1017300011DAEA48B0F9000010F1050F0BDDE748B7
:10174000B0F9000000EB800080001E2190FBF1F05A
:1017500000B2E3490880E348B0F90000372811DA05
:10176000E048B0F9000010F1050F0BDDDD48B0F9DD
:10177000000000EB800080001E2190FBF1F000B221
:10178000D9490880D948B0F90000372811DAD7487C
:10179000B0F9000010F1050F0BDDD448B0F90000DE
:1017A00000EB800080001A2190FBF1F000B2D049DC
:1017B0000880C748B0F90000CE490880CE48B0F98B
:1017C00000004880CD48B0F900008880CC48B0F9CE
:1017D0000000C880C048B0F900000881C048B0F9D6
:1017E00000004881C048B0F900008881C048B0F9C5
:1017F0000000C88100240EE0BE4830F914000A2819
:1018000004DD0120BF4921F8140003E00020BD4998
:1018100021F81400641C082CEEDB002418E0BA49FF
:10182000601C31F8100021F81400B849601C31F830
:10183000100021F81400B649601C31F8100021F89E
:101840001400B449601C31F8100021F81400641C25
:10185000092CE4DBAB484088AB494882A9480088A2
:10186000AA494882A7488089A9494882A548C089D1
:10187000A84948820020A849088000241AE0A2480C
:1018800030F8140001280ED0A04830F814000128C8
:1018900009D09F4830F81400012804D09D4830F842
:1018A0001400012805D19C480088401C00B29A49C8
:1018B0000880641C0A2CE2DB9748B0F9000003287A
:1018C0000BDC9048C088012807D18E480089012888
:1018D00003D100209149088002E001208F4908804F
:1018E00000241EE0874830F914100246601C32F9CB
:1018F0001000081A03D520B28949088010E0C4F10D
:101900000700804931F91000C4F106017D4A32F91F
:101910001110401A04D5C4F1070000B281490880B3
:10192000641C072CDEDB7748008850B97C480088AF
:1019300038B97C480088012803D100207949088003
:101940000CE07048C08948B975480088062805D160
:1019500074480088072801D1714908806948B0F9A6
:1019600000006849B1F902100844022806D0654811
:101970000088012806D16348408818B900206849CA
:10198000088012E05F48B0F90C005E49B1F90E1012
:101990000844022806D05B48C089012805D159486F
:1019A000808910B907205F4908805E48B0F90000BF
:1019B0005B49B1F90010884207DB5A480088584952
:1019C0000988084400B2584908804E480088012818
:1019D00003D14C48C08901280FD04A48008801280B
:1019E00003D148488089012807D04648408801280B
:1019F0000DD14448C089012809D10A204B490880EB
:101A000000204B49088004204449088005E04748ED
:101A10000088401E00B2454908804448B0F90000E3
:101A2000002852DC0020414908803F48B0F90000FE
:101A30000F287FD2DFE800F008111D29353F7F888D
:101A4000919AA4AEB8C2CC002A48B0F90000C0F107
:101A5000780000B236490880C2E02648B0F902009A
:101A6000C0F1730023490988401A00B23049088048
:101A7000B6E02048B0F90200C0F164001D49898831
:101A8000401A00B22A490880AAE01A48B0F90600B4
:101A9000C0F1550017498988401A00B224490880CE
:101AA0009EE0144800881349C988401A3C3000B2AF
:101AB0001F49088094E00F4840880E490989401A60
:101AC000193000B21A4908808AE08AE0CE0000206E
:101AD000DE000020D0000020E0000020D200002026
:101AE000E2000020D4000020E4000020D600002006
:101AF000E6000020EA300020DC000020DA000020B0
:101B0000D8000020FA3000209A300020AE300020AB
:101B1000C2300020D63000200A0100200C01002035
:101B20000401002006010020080100200E01002011
:101B3000FC00002053E03E4880883D494989401A16
:101B400000B23C4908804BE03948808838494989CF
:101B5000401A00B23749088042E03548808834494D
:101B60004989401A00B23349088039E03048C088BA
:101B70002F498989401A193800B22E4908802FE070
:101B80002B4800892A49C989401A3C3800B22949A2
:101B9000088025E0264800892549498908445538A8
:101BA00000B2244908801BE02148408920498989E6
:101BB0000844643800B21F49088011E01C4880893D
:101BC0001B49C9890844733800B21A49088007E0E4
:101BD0001748C089783800B21649088000E000BF75
:101BE0001BE01349B1F90410114AB2F90A20891A0D
:101BF0000F4AB2F9022011440D4AB2F90C20881A9A
:101C000014F08BF9074600220B4B14F0B1F905468E
:101C100014F026F900B20749088000210548B0F900
:101C20000000FFF705FB0349088000BF35E4000012
:101C3000EA300020FC0000200000E03F7FB50646AF
:101C40000C4615460121022007F063FAADF8084062
:101C5000ADF804500020ADF80A00ADF8060001A967
:101C6000AD4807F085FB01221146AB4807F0F7FEAF
:101C70001D208DF8000000208DF8010003208DF854
:101C8000020001208DF80300684606F0ACFC01213B
:101C9000A14807F0C9FE7FBD10B501219E4808F09C
:101CA0008CF918B101219C4808F098F910BD30B5A5
:101CB00089B004460D4601210E2007F02AFA0121C1
:101CC0000D2007F019FA4FF45070ADF820001820DD
:101CD0008DF8230003208DF8220008A98F4806F014
:101CE0004BFD0C20ADF8200018208DF823000320B8
:101CF0008DF8220008A98A4806F03EFD4020ADF884
:101D0000200018208DF8230003208DF8220008A958
:101D1000834806F031FDADF81840ADF814500020AE
:101D2000ADF81A00ADF8160005A97E4807F020FBB3
:101D30007020ADF804000120ADF806000020ADF8D9
:101D40000C00204604EBD071C1F34F01ADF80A102E
:101D500001A9744807F049FB01A9724807F0D4FBB8
:101D600001A9704807F01BFC08216E4807F08CFFA2
:101D700008216C4807F09EFF08216A4807F0A3FF7E
:101D80000121684807F050FF0121664807F04CFE2A
:101D9000ADF81840ADF814500020ADF81A00ADF8B9
:101DA000160005A9604807F0E3FA7020ADF80400BA
:101DB0000120ADF806000020ADF80C00204604EB31
:101DC000D071C1F34F01ADF80A1001A9564807F0D0
:101DD0009BFB01A9544807F0E2FB0821524807F099
:101DE00069FF0821504807F06EFF01214E4807F0B7
:101DF0001BFF01214C4807F017FEADF81840ADF865
:101E000014500020ADF81A00ADF8160005A942489C
:101E100007F0AEFA7020ADF804000120ADF806001E
:101E20000020ADF80C00204604EBD071C1F34F0147
:101E3000ADF80A1001A9384807F0D7FA082136484A
:101E400007F022FF0121344807F0EEFE012132485D
:101E500007F0EAFD09B030BD70B504460D461646E0
:101E6000B4F5617F02DD4FF4617403E014F5617F26
:101E700000DA2E4CB5F5617F02DD4FF4617503E0A9
:101E800015F5617F00DA294DB6F5617F02DD4FF46B
:101E9000617603E016F5617F00DA244E002C08DB42
:101EA000A1B2204808F058F800211E4808F058F860
:101EB00008E0604281B21B4808F052F8002119483E
:101EC00008F04AF8002D08DBA9B2164808F04AF8D5
:101ED0000021154808F044F808E0684281B2124831
:101EE00008F03EF800210F4808F03CF8002E08DB0F
:101EF000B1B20D4808F036F80021074808F02CF878
:101F000008E0704281B2044808F026F80021064833
:101F100008F028F870BD000000040040000C0140EB
:101F20000008014000080040000C00407CFCFFFF5E
:101F30002DE9F04104460E4615460027002D01DC30
:101F4000BDE8F081FE4884427CD12A463146FD48F6
:101F5000FEF7F6FDFB48FEF7D1FD28B10120F94957
:101F6000103981F8220004E00020F649103981F888
:101F70002200F448103890F82000012821D1F248BE
:101F8000406C00F0010010B1EF48806CC8B9ED481A
:101F9000103890F82300401CEA49103981F82300DA
:101FA000E948443008F002F9002805DD0121E6483F
:101FB000443008F0E4F804E00020E249103981F8E8
:101FC0002000E048103890F82000002878D1DD4843
:101FD000FEF7C6FD0028F9D100BF00BF00BF08F022
:101FE000F3FF074600BF00BFD8480078401CD74920
:101FF000087000BF00BF384608F0EAFF00BF00BF0E
:1020000000BF0021D048443008F0B9F8CD4810385E
:1020100081694069814216DDCA481038016940690A
:102020000844C9490865C748103882694069101AD0
:1020300081B2C548443008F0B7F8C2481038816909
:10204000416115E04CE0BF4810380169406908441F
:10205000BD490865BB4810384069C0F5806081B251
:10206000B948443008F0A0F80021B6481038416162
:102070000121B548443008F082F80120B1491039F7
:1020800081F8200000BF00BF00BF08F09DFF074699
:1020900000BF00BFAD480078401EAC49087008463C
:1020A0000078A8B9AA48008800280ADD00BF00BF50
:1020B000384608F08DFF00BF00BF0BF036FA0EE087
:1020C00015E000BF00BF384608F082FF00BF06E001
:1020D00000BF00BF384608F07BFF00BF00BF06E02E
:1020E0009C48844203D09C48844200D000BF00BF7B
:1020F00026E72DE9F04104460F461646002597488D
:10210000844210D100BF0BE000BF208800F04000E7
:102110000028FAD0795D204606F0B8FD681C85B22B
:10212000B542F1DB04E0324639462046FFF700FFB6
:10213000BDE8F0810FB438B50546002406A800902C
:10214000FF218748009B059A12F0D6F8044600202C
:102150000090601C90B1FF2C10DC002080490855D5
:102160007E48854204D1A2B22846FFF7C2FF2FE085
:10217000A2B27B492846FFF7DBFE29E0FF2C14DDE5
:10218000224678A1764812F0DDF80446734885426D
:1021900005D1A2B272492846FFF7ABFF18E0A2B200
:1021A0006F492846FFF7C4FE12E07BA16C4812F08D
:1021B000C9F804466948854205D1A2B26849284653
:1021C000FFF797FF04E0A2B265492846FFF7B0FE8B
:1021D00038BC5DF814FB00B587B00121042006F07F
:1021E0008BFF0121880306F087FF4FF40070ADF8E4
:1021F000080003208DF80A0018208DF80B0002A9B2
:10220000704806F0B9FA4FF48060ADF80800482035
:102210008DF80B0002A96B4806F0AEFA4FF4E130DE
:1022200003900020ADF81000ADF81200ADF81400D6
:102230000C20ADF816000020ADF8180003A94048A6
:1022400006F02BFC012280213D4806F0E3FC012230
:1022500040213B4806F0DEFC002240F2266138486F
:1022600006F0B3FC002240F22551354806F0ADFCE3
:10227000002240F22771324806F0A7FC002240F20B
:1022800024412F4806F0A1FC01224FF458712C483C
:1022900006F09BFC01212A4806F08BFC25208DF8D6
:1022A000040003208DF805008DF8060001208DF84C
:1022B000070001A806F097F907B000BD00B58DB082
:1022C0000F208DF8300002208DF8310000208DF8AD
:1022D000320001208DF833000CA806F084F90121AA
:1022E000084606F0FCFE1848583007F07BFE1448FC
:1022F000001D0190134810380068029000200390E0
:102300000120049000200590069007900890099005
:102310004FF440500A9000200B9001A90A48583011
:1023200007F002FF01210848583007F028FF01227A
:102330000A210548583007F02EFF0DB000BD0000FF
:10234000003801402C31002000000240A002002093
:10235000640200200044004000480040005000405B
:10236000DC39002055534152545F7072696E7466B7
:102370003A537472696E67206C656E677468206981
:102380007320746F6F206C6F6E672C4C656E677472
:10239000683A25640A00000055534152545F707238
:1023A000696E74663A76736E7072696E7466282907
:1023B0002072657475726E202D312C66696C6564AF
:1023C0002E0A00000008014000B58DB00E208DF8E7
:1023D000300002208DF8310003208DF832000120FA
:1023E0008DF833000CA806F0FEF80121084606F02F
:1023F00076FEFE4807F0F6FDFD480190FD480069B5
:1024000002901020039000200490059080200690F8
:1024100000200790089009904FF400500A90002087
:102420000B9001A9F14807F07FFE01220A21EF4835
:1024300007F0B1FE0DB000BDEF48EE4908614FF462
:102440008061EC48C161ED48EA4908604FF4806062
:10245000C860704710B5FFF7EFFFFFF7B5FFFFF754
:102460002DFFFFF7B8FE10BD10B500240AF0DCFA0E
:1024700000BF00BF00BF08F0A7FD044600BF00BFBB
:10248000DF480078401CDE49087000BF00BF2046CE
:1024900008F09EFD00BF00BF00BF4FF4005007F0E2
:1024A000A8FE002843D04FF4005007F0B6FE0021EC
:1024B000CE4807F064FECF4881694069814216DD4D
:1024C000CC48016940690844C84944390865C9488D
:1024D00082694069101A81B2C44807F065FEC54898
:1024E000816941610121C14807F049FE1FE0C148EF
:1024F00081694069814216DABE4801694069084431
:10250000BA4944390865BB484069C0F5806081B26A
:10251000B64807F049FE0021B64841610121B348A1
:1025200007F02DFE03E00020B24981F820004FF4AF
:10253000004007F05EFEA8B14FF4004007F06DFECA
:102540000021AA4807F01BFEA84807F02FFE00282C
:1025500004DD0121A54807F012FE03E00020A54993
:1025600081F820004FF4805007F057FE00BF00BFF5
:1025700000BF08F029FD044600BF00BFA048007856
:10258000401E9F49087008460078A0B99D48008801
:10259000002809DD00BF00BF204608F019FD00BF7C
:1025A00000BF0AF0C2FF0DE000BF00BF204608F0E8
:1025B0000FFD00BF06E000BF00BF204608F008FD89
:1025C00000BF00BF00BF0AF040FA10BD10B50024E4
:1025D0000AF02AFA00BF00BF00BF08F0F5FC04466D
:1025E00000BF00BF86480078401C8549087000BFC6
:1025F00000BF204608F0ECFC00BF00BF00BF4FF456
:10260000003007F0F6FD08B34FF4003007F005FE88
:1026100000217648143007F0B2FD7648FEF76EFAD6
:1026200050B97448FEF7A5FA724800687149896884
:1026300008446E494439486601216C48143007F05B
:10264000B3FD01216948143007F099FD4FF40020D3
:1026500007F0CFFDD0B14FF4002007F0DEFD0021E0
:102660006248143007F08BFD624800686149896850
:1026700008445E494439486601215C48143007F03B
:1026800093FD01215948143007F079FD4FF4803053
:1026900007F0C3FD00BF00BF00BF08F095FC044673
:1026A00000BF00BF56480078401E554908700846D4
:1026B0000078A0B953480088002809DD00BF00BF9A
:1026C000204608F085FC00BF00BF0AF02EFF0DE099
:1026D00000BF00BF204608F07BFC00BF06E000BF43
:1026E00000BF204608F074FC00BF00BF00BF0AF026
:1026F000ACF910BD10B500240AF096F900BF00BF78
:1027000000BF08F061FC044600BF00BF3C480078F1
:10271000401C3B49087000BF00BF204608F058FC31
:1027200000BF00BF00BF40F224413148001F06F047
:1027300031FB50B101202F4981F82100002240F2E5
:1027400024412B48001F06F040FA40F22661284839
:10275000001F06F01FFB60B1002240F226612448F2
:10276000001F06F032FA40F226612148001F06F0F1
:102770003BFB08211E48001F06F0F6FA18B308219B
:102780001B48001F06F0FDFA1948001F06F082FAE8
:102790001648143007F00AFDA8B900211348143078
:1027A00007F0EDFC01211148143007F0FDFC012178
:1027B0000E48143007F0E3FC0E4890F82400401C4B
:1027C0000C4981F8240000BF00BF00BF08F0FCFBEB
:1027D000044600BF00BF0A480078401E0849087040
:1027E0000846007818BB074800880DE04400024006
:1027F000043801401C310020DC310020DC35002091
:10280000A002002064020020002809DD00BF00BFF4
:10281000204608F0DDFB00BF00BF0AF086FE0DE099
:1028200000BF00BF204608F0D3FB00BF06E000BF9A
:1028300000BF204608F0CCFB00BF00BF00BF0AF07D
:1028400004F910BD014600BF704700BF054A128859
:1028500002F04002002AF9D0C2B2024B1B1D1A80BE
:10286000704700000038014010B50024374806F0DA
:102870001FF8C043C0F34304354800782040354971
:1028800008700846007840F08000087030480470F6
:1028900010BD08B50121802006F02EFC1E20ADF8E9
:1028A000000004208DF8030003208DF80200694623
:1028B000264805F061FFFFF7D7FF0A2005F03FFE2D
:1028C000FFF7D2FF08BD2348007800F0800038B140
:1028D0002048007800F03F0100201E4A107001E0FF
:1028E000002070471C48007860EA01001A4A107006
:1028F0001A48007860EA0100184A107016480078FB
:10290000084030B10020164A107013480078134A6E
:102910001070134800781E2808DB1048007801402A
:102920000F480078401F0E4A107007E00A480078F0
:1029300001400B480078401C094A10700648007896
:102940008843054A10700846CBE70000001C014090
:10295000E2010020E0010020E3010020E40100206A
:10296000E5010020F74908807047F649891C088076
:10297000704708B5F348801C00880090BDF800003F
:1029800008BDF04A1080921C1180704710B50446B3
:102990002046FFF7E7FF052005F0A6FDFFF7E9FF5A
:1029A00010BDE9480089E74908807047E549891C5E
:1029B0000880704730B5014601F01F04C1F345138C
:1029C000CA0AE50205EB43151544A8B230BD00BFA5
:1029D0000100A0F10102D0B2FAD1704710B5034650
:1029E0000C46D948808849F24131884205D0D64802
:1029F000808845F21031884214D1D3494889FFF7C5
:102A0000B1FF1812FFF7B1FFD8B2FFF7AEFFCE4902
:102A10008889FFF7A7FF2012FFF7A7FFE0B2FFF7B3
:102A2000A4FFABE0C848808846F6040188421DD167
:102A3000C5488079012804D1C3480088401EC01AC7
:102A400083B2C1494889FFF78DFF1812FFF78DFF48
:102A5000D8B2FFF78AFFBC498889FFF783FF2012AD
:102A6000FFF783FFE0B2FFF780FF87E0B64880887A
:102A700041F66311884247D1B3488079A8B9B2487A
:102A80000088401EC01A83B2AF494889FFF76AFF29
:102A90000020FFF76AFF0020FFF767FF1812FFF71B
:102AA00064FFD8B2FFF761FF16E0A7494889FFF736
:102AB00059FF1812FFF759FFD8B2FFF756FFA24986
:102AC0000988491EC1F30F20FFF74FFF9E4909787F
:102AD000491EC8B2FFF749FF9B498889FFF742FFAB
:102AE0002012FFF742FFE0B2FFF73FFF9649498807
:102AF000491EC1F30F20FFF738FF93498978491E1B
:102B0000C8B2FFF732FF39E08F48808845F2105194
:102B1000884220D18C494889FFF724FF1812FFF71B
:102B200024FF89494989491C88B2FFF71BFFD8B2A5
:102B3000FFF71BFF84498889FFF714FF2012FFF776
:102B400014FF81498989491C88B2FFF70BFFE0B265
:102B5000FFF70BFF12E07C488079012804D17A4806
:102B60000088401EC01A83B2774948891946FFF78A
:102B700008FF754988892146FFF703FF10BD2DE93D
:102B8000F04105460E4600240027A0466E48008806
:102B9000A84203DD6C484088B04202DC0020BDE85A
:102BA000F08131462846FFF719FF6748808849F2CF
:102BB0004131884211D06448808846F60401884239
:102BC0000BD06148808845F21031884205D05E48BC
:102BD000808841F66311884203D12E20FFF7C2FEA0
:102BE0000DE05948808845F21051884204D14FF4D5
:102BF0003850FFF7B7FE02E02220FFF7B3FE52483D
:102C0000808849F22031884202D10220FFF7DFFE9E
:102C1000FFF7AFFE04464C48808841F663118842B6
:102C200001D12046BBE70220FFF7D1FEFFF7A1FE4E
:102C300004464548808849F2413188420BD04248D9
:102C4000808845F21031884205D03F48808845F29F
:102C5000105188420AD10220FFF7B9FEFFF789FE22
:102C60008046E7B24FF6FF7000EA072736488088B3
:102C700049F22531884216D03348808844F23551D4
:102C8000884210D030488088091F88420BD02E48D7
:102C900080884BF20551884205D02B4880884CF241
:102CA0000551884201D1204679E72748808849F2BA
:102CB000413188420BD02448808845F21031884247
:102CC00005D02148808845F21051884207D1E01292
:102CD000C002B91240EA411040EAE8205FE720460E
:102CE000FFF768FE5BE700B51748808849F241317D
:102CF000884211D01448808846F6040188420BD0DF
:102D00001148808845F21031884205D00E488088ED
:102D100041F66311884203D12920FFF723FE0FE01B
:102D20000948808845F21051884204D14FF424505C
:102D3000FFF718FE04E040F273110720FFF721FEB1
:102D400000BD0000FE07006CDC3A002000B5FD4825
:102D5000808849F24131884211D0FA48808846F68D
:102D6000040188420BD0F748808845F21031884230
:102D700005D0F448808841F66311884203D12820A9
:102D8000FFF7F0FD0EE0EF48808845F210518842D1
:102D900004D14FF42050FFF7E5FD03E000210720A8
:102DA000FFF7EFFD00BD70B5044600230026E5489F
:102DB000807901280BD1E348808846F604018842D7
:102DC00005D0E048808841F66311884208D1DD488B
:102DD0008079F0B9DB48808841F66311884218D1C8
:102DE000082C15D2DFE804F00406080A0C0E1012B5
:102DF00006240DE007240BE0042409E0052407E085
:102E0000012405E0002403E0032401E0022400BFC4
:102E100000BFCC48808849F24131884217D0C94868
:102E2000808846F60401884211D0C648808845F261
:102E3000103188420BD0C348808845F21051884237
:102E400005D0C048808841F6631188427ED1082CA5
:102E50001CD2DFE804F00406090C0F12151800BF9D
:102E600014E043F0800311E043F040030EE043F030
:102E7000C0030BE043F0200308E043F0600305E0EB
:102E800043F0A00302E043F0E00300BF00BFAD4801
:102E9000808845F21051884202D14FF4585600E024
:102EA0003626A848808845F2103188420DD0A548C2
:102EB000808845F21051884207D0A248808841F6A8
:102EC0006311884201D043F008039E48808846F68B
:102ED0000401884201D143F0020319463046FFF74E
:102EE00050FD9848808841F6631188421DD003F058
:102EF000200068B19348008892494988884214DAD2
:102F00009048058840888F490880084645800CE035
:102F10008C4800888B494988884206DD89480588A5
:102F2000408888490880084645808648808845F260
:102F30001051884254D183494889FFF713FD00207E
:102F4000FFF713FD7F494989491C00E077E088B20B
:102F5000FFF708FD0020FFF708FD7A494989891C21
:102F600088B2FFF7FFFC77490988491EC1F30F209B
:102F7000FFF7FBFC73494989C91C88B2FFF7F2FCD3
:102F800070490978491EC8B2FFF7EFFC6D4988897E
:102F9000FFF7E8FC0020FFF7E8FC6A498989491C33
:102FA00088B2FFF7DFFC0020FFF7DFFC6549898965
:102FB000891C88B2FFF7D6FC62494988491EC1F3D3
:102FC0000F20FFF7D2FC5F498989C91C88B2FFF73F
:102FD000C9FC5C498978491EC8B2FFF7C6FC55E0B8
:102FE00058494889FFF7BEFC0020FFF7BEFC0020CF
:102FF000FFF7BBFC53490988491EC1F30F20FFF7B7
:10300000B4FC50490978491EC8B2FFF7AEFC4D49DF
:103010008889FFF7A7FC0020FFF7A7FC0020FFF737
:10302000A4FC48494988491EC1F30F20FFF79DFCC5
:1030300044498978491EC8B2FFF797FC26E0082C5E
:103040001CD2DFE804F004070A0D0F12151843F034
:10305000300313E043F0100310E043F020030DE0D1
:1030600000BF0BE043F0380308E043F0280305E01D
:1030700043F0180302E043F0080300BF00BF03263B
:1030800043F4805319463046FFF77BFC70BD30B5E2
:1030900004460D4629462046FFF7A0FCFFF781FCB9
:1030A000294800882949088030BD30B503460C46C0
:1030B00015462448808849F24131884205D021488C
:1030C000808845F21031884214D11E494889FFF7A3
:1030D00049FC1812FFF749FCD8B2FFF746FC194922
:1030E0008889FFF73FFC2012FFF73FFCE0B2FFF7B3
:1030F0003CFC93E01348808845F21051884227D168
:1031000010494889FFF72EFC1812FFF72EFC0D49D5
:103110004989491C88B2FFF725FCD8B2FFF725FC86
:1031200008498889FFF71EFC2012FFF71EFC05499D
:103130008989491C88B2FFF715FCE0B2FFF715FC3E
:103140006CE00000DC3A0020E60100200008006C82
:10315000FC48808841F66311884228D1F94880797B
:1031600020B9F8480088401EC01A83B2F549488942
:10317000FFF7F8FB1812FFF7F8FBD8B2FFF7F5FBE3
:103180001812FFF7F2FBD8B2FFF7EFFBED49888981
:10319000FFF7E8FB2012FFF7E8FBE0B2FFF7E5FBE3
:1031A0002012FFF7E2FBE0B2FFF7DFFB36E0E54875
:1031B000808846F6040188421DD1E24880790128C2
:1031C00004D1E0480088401EC01A83B2DD49488916
:1031D000FFF7C8FB1812FFF7C8FBD8B2FFF7C5FB13
:1031E000D8498889FFF7BEFB2012FFF7BEFBE0B28B
:1031F000FFF7BBFB12E0D3488079012804D1D14806
:103200000088401EC01A83B2CE4948891946FFF78C
:10321000B8FBCC4988892146FFF7B3FBC948008930
:10322000C9490880881C058030BD2DE9F047044657
:10323000BE20FFF797FB0520FFF797FB204612F013
:1032400083FE07464FF06632C04B12F091FE0546F2
:1032500012F036FE1FFA80F94846FFF786FB012080
:10326000FFF783FBFF20FFF780FB0020FFF77DFBCC
:103270000020FFF77AFBBDE8F08710B50446002C6C
:1032800066D1B0498871F02008804FF4A070488062
:103290000846808849F2413188420BD0A94880888D
:1032A00046F60401884205D0A648808845F21031D0
:1032B00088421AD12C20A34908812A2048812B203A
:1032C00088810846808846F60401884205D09D48DA
:1032D000808845F21031884206D14FF4A070994998
:1032E00008804FF4F0704880A1E09648808845F24D
:1032F0001051884210D14FF43050924908814FF458
:10330000285048814FF42C5088814FF4F070088089
:103310004FF4487048808AE08A48808841F66311FB
:1033200088420DD12C20874908812B2048812A20F2
:1033300088814FF4F07008804FF44870488076E040
:1033400022208049088120204881212088816EE048
:1033500001207C4988714FF4A0700880F0204880DB
:103360000846808849F24131884205D075488088F6
:1033700045F21031884207D12C20724908812A2059
:1033800048812B2088813FE06E48808846F6040102
:10339000884207D12C206B4908812B2048812A20A4
:1033A000888131E06748808845F21051884210D109
:1033B0004FF43050634908814FF4285048814FF44E
:1033C0002C5088814FF4487008804FF4F07048808A
:1033D0001AE05C48808841F6631188420DD12C20A8
:1033E000584908812A2048812B2088814FF4487051
:1033F00008804FF4F070488006E02220514908818F
:1034000021204881202088814E48808846F604018A
:10341000884205D04B48808845F21031884206D159
:103420004FF4F070474908804FF4A07048800020A6
:10343000FFF7B9FC10BD2DE9F04F86B004460D46EC
:103440009046994604EB0800401E86B205EB090041
:10345000401E87B23B48808849F24131884215D0EE
:103460003848808845F2103188420FD0354880882E
:1034700046F60401884209D032488079012826D1D5
:103480003048808841F66311884220D12D4948890F
:10349000FFF768FA2012FFF768FAE0B2FFF765FA63
:1034A0003012FFF762FAF0B2FFF75FFA2549888918
:1034B000FFF758FA2812FFF758FAE8B2FFF755FA63
:1034C0003812FFF752FAF8B2FFF74FFABEE01D4884
:1034D000808841F6631188423AD11A480088A0EBEF
:1034E0000800001B84B205EB0900401E1FFA80F99A
:1034F00014494889FFF736FA2012FFF736FAE0B28E
:10350000FFF733FA04EB0801491EC1F30F20FFF760
:103510002CFA04EB0801491EC8B2FFF726FA094944
:103520008889FFF71FFA2812FFF71FFAE8B2FFF7A2
:103530001CFA4FEA2920FFF718FA09F0FF00FFF7FD
:1035400014FA83E0DC3A0020FE07006C6666044053
:10355000FE48808845F21051884244D1FB49488991
:10356000FFF700FA2012FFF700FAF8494989491CD1
:1035700088B2FFF7F7F9E0B2FFF7F7F9F3494989A5
:10358000891C88B2FFF7EEF93012FFF7EEF9EF4928
:103590004989C91C88B2FFF7E5F9F0B2FFF7E5F9F0
:1035A000EA498889FFF7DEF92812FFF7DEF9E749D3
:1035B0008989491C88B2FFF7D5F9E8B2FFF7D5F938
:1035C000E2498989891C88B2FFF7CCF93812FFF7E4
:1035D000CCF9DE498989C91C88B2FFF7C3F9F8B272
:1035E000FFF7C3F932E0D948807901280ED1AA4605
:1035F000BB46D6480088801B401E80B20190D3484D
:103600000088001B401E80B2009003E0A246B34633
:10361000019500975020059051200490522003906E
:103620005320029051460598FFF7ABF9594604988C
:10363000FFF7A7F901990398FFF7A3F900990298FA
:10364000FFF79FF929462046FFF7C8F906B0BDE805
:10365000F08F70B504460026BC4805884088454375
:10366000BA48808846F60401884216D1B748807966
:10367000012812D10020B54988712A2048812B20C9
:10368000888100210846FFF7A9F90120AF49887118
:103690002B2048812A20888103E000210846FFF77B
:1036A0009DF9FFF77EF9002602E0A9480480761C08
:1036B000AE42FAD370BD00B59FB00121080205F0FB
:1036C0000EFD01214FF4B47005F016FD0120ADF898
:1036D000780010208DF87B0003208DF87A001EA959
:1036E0009C4805F049F84CF23370ADF8780018208A
:1036F0008DF87B0003208DF87A001EA9964805F00E
:103700003BF84FF68070ADF8780018208DF87B00FC
:1037100003208DF87A001EA9904805F02DF841F29B
:103720000100ADF8780018208DF87B0003208DF89B
:103730007A001EA98A4805F01FF801200890002091
:1037400009900F200A9000200B900C900D900E9085
:1037500001900290032003900020049005900690B1
:10376000079006200F9000201090119010201290CA
:103770000020139015901490169017904FF48050DD
:103780001890002019904FF480401A9000201B9050
:1037900008A81C9001A81D900FA806F099FD012112
:1037A000062006F0FDFE322004F0C9FE0020FFF7DF
:1037B000EDF86649888008468088FF280ADB0846BD
:1037C00080884FF6FF71884204D060488088B0F549
:1037D000134F7CD1D320FFF7C5F8FFF7CAF85B4938
:1037E0008880FFF7C6F859498880FFF7C2F8574923
:1037F0008880084680884FF6FF7101EA002053490F
:103800008880FFF7B6F85149898808434F49888076
:103810000846808849F24131884258D0BF20FFF7DE
:10382000A1F8FFF7A6F849498880FFF7A2F84749B1
:103830008880FFF79EF845498880FFF79AF843494A
:103840008880084680884FF6FF7101EA00203F49D2
:103850008880FFF78EF83D49898808433B49888076
:103860000846808846F60401884230D0D420FFF70D
:1038700079F8FFF77EF835498880FFF77AF8334901
:103880008880FFF776F831498880084680884FF6AF
:10389000FF7101EA00202D498880FFF76AF82B4963
:1038A00089880843294988800846808845F2103174
:1038B000884263D04FF45A40FFF754F8FFF759F8A5
:1038C000224988804FF45B40FFF74CF800E055E058
:1038D000FFF74FF81D498880084680884FF6FF7132
:1038E00001EA0020194988804FF45C40FFF73AF85C
:1038F000FFF73FF81549898808431449888008462E
:103900008088B0F5004F02D145F2105088800F48F2
:10391000808845F21051884230D0A120FFF722F86C
:10392000FFF727F809498880FFF723F807498880BF
:10393000084680884FF6FF7101EA0020034988801D
:10394000FFF717F80149898808430BE0DC3A0020AB
:103950000008006C000C01400014014000180140F8
:1039600000200140FE4988800846808845F2617148
:10397000884203D141F66310F9498880F84881886C
:10398000F8A010F0D3FCF648808849F24131884213
:103990007ED1CF20FEF7E6FF0020FEF7E6FFC12034
:1039A000FEF7E3FF3020FEF7E0FFED20FEF7DAFF41
:1039B0006420FEF7DAFF0320FEF7D7FF1220FEF7A0
:1039C000D4FF8120FEF7D1FFE820FEF7CBFF852052
:1039D000FEF7CBFF1020FEF7C8FF7A20FEF7C5FFE9
:1039E000CB20FEF7BFFF3920FEF7BFFF2C20FEF7EC
:1039F000BCFF0020FEF7B9FF3420FEF7B6FF02201F
:103A0000FEF7B3FFF720FEF7ADFF2020FEF7ADFF76
:103A1000EA20FEF7A7FF0020FEF7A7FF0020FEF731
:103A2000A4FFC020FEF79EFF1B20FEF79EFFC120D3
:103A3000FEF798FF0120FEF798FFC520FEF792FFE2
:103A40003020FEF792FF3020FEF78FFFC720FEF7F1
:103A500089FFB720FEF789FF3620FEF783FF482055
:103A6000FEF783FF3A20FEF77DFF5520FEF77DFF2E
:103A7000B120FEF777FF0020FEF777FF1A20FEF750
:103A800074FFB620FEF76EFF0A20FEF76EFF00E01F
:103A900097E0A220FEF769FFF220FEF763FF002007
:103AA000FEF763FF2620FEF75DFF0120FEF75DFFB6
:103AB000E020FEF757FF0F20FEF757FF2A20FEF702
:103AC00054FF2820FEF751FF0820FEF74EFF0E207E
:103AD000FEF74BFF0820FEF748FF5420FEF745FF96
:103AE000A920FEF742FF4320FEF73FFF0A20FEF722
:103AF0003CFF0F20FEF739FF0020FEF736FF0020C5
:103B0000FEF733FF0020FEF730FF0020FEF72DFF09
:103B1000E120FEF727FF0020FEF727FF1520FEF724
:103B200024FF1720FEF721FF0720FEF71EFF1120BC
:103B3000FEF71BFF0620FEF718FF2B20FEF715FFF0
:103B40005620FEF712FF3C20FEF70FFF0520FEF780
:103B50000CFF1020FEF709FF0F20FEF706FF3F20A5
:103B6000FEF703FF3F20FEF700FF0F20FEF7FDFEEC
:103B70002B20FEF7F7FE0020FEF7F7FE0020FEF7F1
:103B8000F4FE0120FEF7F1FE3F20FEF7EEFE2A20B4
:103B9000FEF7E8FE0020FEF7E8FE0020FEF7E5FE57
:103BA0000020FEF7E2FEEF20FEF7DFFE1120FEF719
:103BB000D9FE782004F0C3FC2920FEF7D3FE03F0E1
:103BC00025B96748808846F6040188427ED11120D5
:103BD000FEF7C8FE142004F0B2FCD020FEF7C2FEAF
:103BE0000720FEF7C2FE4220FEF7BFFE1D20FEF7B3
:103BF000BCFED120FEF7B6FE0020FEF7B6FE1A206E
:103C0000FEF7B3FE0920FEF7B0FED220FEF7AAFEB3
:103C10000120FEF7AAFE2220FEF7A7FEC020FEF735
:103C2000A1FE1020FEF7A1FE3B20FEF79EFE002025
:103C3000FEF79BFE0220FEF798FE1120FEF795FE90
:103C4000C520FEF78FFE0320FEF78FFEC820FEF78B
:103C500089FE0020FEF789FE2520FEF786FE212042
:103C6000FEF783FE0520FEF780FE0020FEF77DFEB6
:103C70000A20FEF77AFE6520FEF777FE2520FEF784
:103C800074FE7720FEF771FE5020FEF76EFE0F20C7
:103C9000FEF76BFE0020FEF768FEF820FEF762FEDE
:103CA0000120FEF762FEFE20FEF75CFE0020FEF71C
:103CB0005CFE0220FEF759FE2020FEF753FE362060
:103CC000FEF750FE0820FEF750FE00E02AE03A2002
:103CD000FEF748FE5520FEF748FE2B20FEF742FE79
:103CE0000020FEF742FE0020FEF73FFE0120FEF717
:103CF0003CFE3F20FEF739FE2A20FEF733FE00206F
:103D0000FEF733FE0020FEF730FE0120FEF72DFE09
:103D1000DF20FEF72AFE782004F011FC2920FEF7B0
:103D200021FE4CE70E48808845F21031884240F071
:103D30008487ED20FEF716FE0120FEF716FEFE201A
:103D4000FEF713FEEE20FEF70DFEDE20FEF70DFE61
:103D50002120FEF70AFEF120FEF704FE012009E013
:103D6000DC3A0020204C43442049443A25780D0A8F
:103D700000000000FEF7F9FDDF20FEF7F3FD102044
:103D8000FEF7F3FDC420FEF7EDFD8F20FEF7EDFDFD
:103D9000C620FEF7E7FD0020FEF7E7FDE220FEF774
:103DA000E4FDE220FEF7E1FDE220FEF7DEFDBF20AC
:103DB000FEF7D8FDAA20FEF7D8FDB020FEF7D2FD11
:103DC0000D20FEF7D2FD0020FEF7CFFD0D20FEF7FF
:103DD000CCFD0020FEF7C9FD1120FEF7C6FD002036
:103DE000FEF7C3FD1920FEF7C0FD0020FEF7BDFD64
:103DF0002120FEF7BAFD0020FEF7B7FD2D20FEF7CB
:103E0000B4FD0020FEF7B1FD3D20FEF7AEFD002021
:103E1000FEF7ABFD5D20FEF7A8FD0020FEF7A5FD37
:103E20005D20FEF7A2FD0020FEF79FFDB120FEF70A
:103E300099FD8020FEF799FD0020FEF796FD8B206E
:103E4000FEF793FD0020FEF790FD9620FEF78DFD16
:103E50000020FEF78AFDB220FEF784FD0020FEF769
:103E600084FD0020FEF781FD0220FEF77EFD00208C
:103E7000FEF77BFD0320FEF778FD0020FEF775FDC1
:103E8000B320FEF76FFD0020FEF76FFD0020FEF768
:103E90006CFD0020FEF769FD0020FEF766FD0020A6
:103EA000FEF763FD0020FEF760FD0020FEF75DFDDC
:103EB0000020FEF75AFD0020FEF757FD0020FEF718
:103EC00054FD0020FEF751FD0020FEF74EFD0020BE
:103ED000FEF74BFD0020FEF748FD0020FEF745FDF4
:103EE0000020FEF742FD0020FEF73FFD0020FEF718
:103EF0003CFD0020FEF739FD0020FEF736FD0020D6
:103F0000FEF733FD0020FEF730FD0020FEF72DFD0B
:103F10000020FEF72AFDB420FEF724FD8B20FEF7DB
:103F200024FD0020FEF721FD9620FEF71EFD002057
:103F3000FEF71BFDA120FEF718FD0020FEF715FD82
:103F4000B520FEF70FFD0220FEF70FFD0020FEF763
:103F50000CFD0320FEF709FD0020FEF706FD0420FE
:103F6000FEF703FD0020FEF700FDB620FEF7FAFC89
:103F70000020FEF7FAFC0020FEF7F7FCB720FEF762
:103F8000F1FC0020FEF7F1FC0020FEF7EEFC3F20E4
:103F9000FEF7EBFC0020FEF7E8FC5E20FEF7E5FCF8
:103FA0000020FEF7E2FC6420FEF7DFFC0020FEF7B5
:103FB000DCFC8C20FEF7D9FC0020FEF7D6FCAC2000
:103FC000FEF7D3FC0020FEF7D0FCDC20FEF7CDFC92
:103FD0000020FEF7CAFC7020FEF7C7FC0020FEF7A9
:103FE000C4FC9020FEF7C1FC0020FEF7BEFCEB20D5
:103FF000FEF7BBFC0020FEF7B8FCDC20FEF7B5FCAA
:104000000020FEF7B2FCB820FEF7ACFC0020FEF763
:10401000ACFC0020FEF7A9FC0020FEF7A6FC002067
:10402000FEF7A3FC0020FEF7A0FC0020FEF79DFC9D
:104030000020FEF79AFC0020FEF797FCBA20FEF75E
:1040400091FC2420FEF791FC0020FEF78EFC00205E
:10405000FEF78BFC0020FEF788FCC120FEF782FCF7
:104060002020FEF782FC0020FEF77FFC5420FEF7A4
:104070007CFC0020FEF779FCFF20FEF776FC002098
:10408000FEF773FCC220FEF76DFC0A20FEF76DFC04
:104090000020FEF76AFC0420FEF767FC0020FEF714
:1040A00064FCC320FEF75EFC3C20FEF75EFC0020B3
:1040B000FEF75BFC3A20FEF758FC0020FEF755FCAB
:1040C0003920FEF752FC0020FEF74FFC3720FEF7A8
:1040D0004CFC0020FEF749FC3C20FEF746FC00208B
:1040E000FEF743FC3620FEF740FC0020FEF73DFCC7
:1040F0003220FEF73AFC0020FEF737FC2F20FEF7B7
:1041000034FC0020FEF731FC2C20FEF72EFC0020B2
:10411000FEF72BFC2920FEF728FC0020FEF725FCEB
:104120002620FEF722FC0020FEF71FFC2420FEF7CD
:104130001CFC0020FEF719FC2420FEF716FC0020D2
:10414000FEF713FC2320FEF710FC0020FEF70DFC09
:104150003C20FEF70AFC0020FEF707FC3620FEF7A5
:1041600004FC0020FEF701FC3220FEF7FEFB0020DD
:10417000FEF7FBFB2F20FEF7F8FB0020FEF7F5FB18
:104180002C20FEF7F2FB0020FEF7EFFB2920FEF7C4
:10419000ECFB0020FEF7E9FB2620FEF7E6FB002003
:1041A000FEF7E3FB2420FEF7E0FB0020FEF7DDFB3B
:1041B0002420FEF7DAFB0020FEF7D7FB2320FEF7D2
:1041C000D4FB0020FEF7D1FBC420FEF7CBFB62201E
:1041D000FEF7CBFB0020FEF7C8FB0520FEF7C5FB72
:1041E0000020FEF7C2FB8420FEF7BFFB0020FEF795
:1041F000BCFBF020FEF7B9FB0020FEF7B6FB182051
:10420000FEF7B3FB0020FEF7B0FBA420FEF7ADFBEA
:104210000020FEF7AAFB1820FEF7A7FB0020FEF700
:10422000A4FB5020FEF7A1FB0020FEF79EFB0C2014
:10423000FEF79BFB0020FEF798FB1720FEF795FB8F
:104240000020FEF792FB9520FEF78FFB0020FEF783
:104250008CFBF320FEF789FB0020FEF786FBE620AF
:10426000FEF783FB0020FEF780FBC520FEF77AFBFC
:104270003220FEF77AFB0020FEF777FB4420FEF7A2
:1042800074FB0020FEF771FB6520FEF76EFB00203B
:10429000FEF76BFB7620FEF768FB0020FEF765FB60
:1042A0008820FEF762FB0020FEF75FFBC620FEF7CA
:1042B00059FB2020FEF759FB0020FEF756FB172084
:1042C000FEF753FB0020FEF750FB0120FEF74DFBED
:1042D0000020FEF74AFBC720FEF744FB0020FEF754
:1042E00044FB0020FEF741FB0020FEF73EFB0020D0
:1042F000FEF73BFBC820FEF735FB0020FEF735FB41
:104300000020FEF732FB0020FEF72FFB0020FEF717
:104310002CFBC920FEF726FB0020FEF726FB002021
:10432000FEF723FB0020FEF720FB0020FEF71DFB1D
:104330000020FEF71AFB0020FEF717FB0020FEF717
:1043400014FB0020FEF711FB0020FEF70EFB0020FF
:10435000FEF70BFB0020FEF708FB0020FEF705FB35
:104360000020FEF702FB0020FEF7FFFA0020FEF718
:10437000FCFA0020FEF7F9FAE020FEF7F3FA162027
:10438000FEF7F3FA0020FEF7F0FA1C20FEF7EDFA34
:104390000020FEF7EAFA2120FEF7E7FA0020FEF7F8
:1043A000E4FA3620FEF7E1FA0020FEF7DEFA4620B6
:1043B000FEF7DBFA0020FEF7D8FA5220FEF7D5FA16
:1043C0000020FEF7D2FA6420FEF7CFFA0020FEF7B5
:1043D000CCFA7A20FEF7C9FA0020FEF7C6FA8B2045
:1043E000FEF7C3FA0020FEF7C0FA9920FEF7BDFAE7
:1043F0000020FEF7BAFAA820FEF7B7FA0020FEF771
:10440000B4FAB920FEF7B1FA0020FEF7AEFAC420E4
:10441000FEF7ABFA0020FEF7A8FACA20FEF7A5FACD
:104420000020FEF7A2FAD220FEF79FFA0020FEF746
:104430009CFAD920FEF799FA0020FEF796FAE020C0
:10444000FEF793FA0020FEF790FAF320FEF78DFABC
:104450000020FEF78AFAE120FEF784FA1620FEF724
:1044600084FA0020FEF781FA1C20FEF77EFA002075
:10447000FEF77BFA2220FEF778FA0020FEF775FAA5
:104480003620FEF772FA0020FEF76FFA4520FEF79D
:104490006CFA0020FEF769FA5220FEF766FA002057
:1044A000FEF763FA6420FEF760FA0020FEF75DFA7B
:1044B0007A20FEF75AFA0020FEF757FA8B20FEF713
:1044C00054FA0020FEF751FA9920FEF74EFA002028
:1044D000FEF74BFAA820FEF748FA0020FEF745FA4F
:1044E000B920FEF742FA0020FEF73FFAC420FEF79B
:1044F0003CFA0020FEF739FACA20FEF736FA00200F
:10450000FEF733FAD220FEF730FA0020FEF72DFA3C
:10451000D820FEF72AFA0020FEF727FAE020FEF75F
:1045200024FA0020FEF721FAF320FEF71EFA0020FD
:10453000FEF71BFAE220FEF715FA0520FEF715FA42
:104540000020FEF712FA0B20FEF70FFA0020FEF70C
:104550000CFA1B20FEF709FA0020FEF706FA3420B9
:10456000FEF703FA0020FEF700FA4420FEF7FDF9FB
:104570000020FEF7FAF94F20FEF7F7F90020FEF7CA
:10458000F4F96120FEF7F1F90020FEF7EEF9792049
:10459000FEF7EBF90020FEF7E8F98820FEF7E5F9D1
:1045A0000020FEF7E2F99720FEF7DFF90020FEF782
:1045B000DCF9A620FEF7D9F90020FEF7D6F9B720DE
:1045C000FEF7D3F90020FEF7D0F9C220FEF7CDF9AF
:1045D0000020FEF7CAF9C720FEF7C7F90020FEF752
:1045E000C4F9D120FEF7C1F90020FEF7BEF9D620AC
:1045F000FEF7BBF90020FEF7B8F9DD20FEF7B5F9AC
:104600000020FEF7B2F9F320FEF7AFF90020FEF725
:10461000ACF9E320FEF7A6F90520FEF7A6F9002085
:10462000FEF7A3F90A20FEF7A0F90020FEF79DF996
:104630001C20FEF79AF90020FEF797F93320FEF7C9
:1046400094F90020FEF791F94420FEF78EF900203E
:10465000FEF78BF95020FEF788F90020FEF785F968
:104660006220FEF782F90020FEF77FF97820FEF73E
:104670007CF90020FEF779F98820FEF776F9002012
:10468000FEF773F99720FEF770F90020FEF76DF939
:10469000A620FEF76AF90020FEF767F9B720FEF7BB
:1046A00064F90020FEF761F9C220FEF75EF90020F0
:1046B000FEF75BF9C720FEF758F90020FEF755F921
:1046C000D120FEF752F90020FEF74FF9D520FEF772
:1046D0004CF90020FEF749F9DD20FEF746F90020ED
:1046E000FEF743F9F320FEF740F90020FEF73DF90D
:1046F000E420FEF737F90120FEF737F90020FEF736
:1047000034F90120FEF731F90020FEF72EF90220DE
:10471000FEF72BF90020FEF728F92A20FEF725F9ED
:104720000020FEF722F93C20FEF71FF90020FEF7DB
:104730001CF94B20FEF719F90020FEF716F95D2051
:10474000FEF713F90020FEF710F97420FEF70DF9BB
:104750000020FEF70AF98420FEF707F90020FEF793
:1047600004F99320FEF701F90020FEF7FEF8A220DD
:10477000FEF7FBF80020FEF7F8F8B320FEF7F5F897
:104780000020FEF7F2F8BE20FEF7EFF80020FEF75B
:10479000ECF8C420FEF7E9F80020FEF7E6F8CD209B
:1047A000FEF7E3F80020FEF7E0F8D320FEF7DDF88F
:1047B0000020FEF7DAF8DD20FEF7D7F80020FEF73C
:1047C000D4F8F320FEF7D1F80020FEF7CEF8E5206C
:1047D000FEF7C8F80020FEF7C8F80020FEF7C5F87D
:1047E0000020FEF7C2F80020FEF7BFF80220FEF717
:1047F000BCF80020FEF7B9F82920FEF7B6F8002033
:10480000FEF7B3F83C20FEF7B0F80020FEF7ADF855
:104810004B20FEF7AAF80020FEF7A7F85D20FEF770
:10482000A4F80020FEF7A1F87420FEF79EF80020FF
:10483000FEF79BF88420FEF798F80020FEF795F825
:104840009320FEF792F80020FEF78FF8A220FEF7E3
:104850008CF80020FEF789F8B320FEF786F80020D8
:10486000FEF783F8BE20FEF780F80020FEF77DF803
:10487000C420FEF77AF80020FEF777F8CD20FEF787
:1048800074F80020FEF771F8D320FEF76EF80020D0
:10489000FEF76BF8DC20FEF768F80020FEF765F8FD
:1048A000F320FEF762F80020FEF75FF8E620FEF73F
:1048B00059F81120FEF759F80020FEF756F8342079
:1048C000FEF753F80020FEF750F85620FEF74DF89B
:1048D0000020FEF74AF87620FEF747F80020FEF7A2
:1048E00044F87720FEF741F80020FEF73EF86620F6
:1048F000FEF73BF80020FEF738F88820FEF735F881
:104900000020FEF732F89920FEF72FF80020FEF77E
:104910002CF8BB20FEF729F80020FEF726F8992096
:10492000FEF723F80020FEF720F86620FEF71DF8BA
:104930000020FEF71AF85520FEF717F80020FEF7C2
:1049400014F85520FEF711F80020FEF70EF8452068
:10495000FEF70BF80020FEF708F84320FEF705F8F5
:104960000020FEF702F84420FDF7FFFF0020FDF7CE
:10497000FCFFE720FDF7F6FF3220FDF7F6FF0020F1
:10498000FDF7F3FF5520FDF7F0FF0020FDF7EDFFE9
:104990007620FDF7EAFF0020FDF7E7FF6620FDF730
:1049A000E4FF0020FDF7E1FF6720FDF7DEFF0020B8
:1049B000FDF7DBFF6720FDF7D8FF0020FDF7D5FFEF
:1049C0008720FDF7D2FF0020FDF7CFFF9920FDF7EC
:1049D000CCFF0020FDF7C9FFBB20FDF7C6FF00207C
:1049E000FDF7C3FF9920FDF7C0FF0020FDF7BDFFD5
:1049F0007720FDF7BAFF0020FDF7B7FF4420FDF751
:104A0000B4FF0020FDF7B1FF5620FDF7AEFF0020F8
:104A1000FDF7ABFF2320FDF7A8FF0020FDF7A5FF62
:104A20003320FDF7A2FF0020FDF79FFF4520FDF793
:104A30009CFF0020FDF799FFE820FDF793FF002081
:104A4000FDF793FF0020FDF790FF9920FDF78DFF04
:104A50000020FDF78AFF8720FDF787FF0020FDF784
:104A600084FF8820FDF781FF0020FDF77EFF77207F
:104A7000FDF77BFF0020FDF778FF6620FDF775FF4F
:104A80000020FDF772FF8820FDF76FFF0020FDF783
:104A90006CFFAA20FDF769FF0020FDF766FFBB2031
:104AA000FDF763FF0020FDF760FF9920FDF75DFF34
:104AB0000020FDF75AFF6620FDF757FF0020FDF7A5
:104AC00054FF5520FDF751FF0020FDF74EFF552004
:104AD000FDF74BFF0020FDF748FF4420FDF745FFA1
:104AE0000020FDF742FF4420FDF73FFF0020FDF7C7
:104AF0003CFF5520FDF739FF0020FDF736FFE92088
:104B0000FDF730FFAA20FDF730FF0020FDF72DFF55
:104B10000020FDF72AFF0020FDF727FF0020FDF70A
:104B200021FFAA20FDF721FFCF20FDF71BFF00206A
:104B3000FDF71BFF0020FDF718FF0020FDF715FF14
:104B40000020FDF712FF0020FDF70FFF0020FDF70A
:104B50000CFF0020FDF709FF0020FDF706FF0020F5
:104B6000FDF703FF0020FDF700FF0020FDF7FDFE2D
:104B70000020FDF7FAFE0020FDF7F7FE0020FDF70C
:104B8000F4FE0020FDF7F1FE0020FDF7EEFE002010
:104B9000FDF7EBFEF020FDF7E5FE0020FDF7E5FE5A
:104BA0005020FDF7E2FE0020FDF7DFFE0020FDF7BC
:104BB000DCFE0020FDF7D9FEF320FDF7D3FE002038
:104BC000FDF7D3FEF920FDF7CDFE0620FDF7CDFE63
:104BD0001020FDF7CAFE2920FDF7C7FE0020FDF7D3
:104BE000C4FE3A20FDF7BEFE5520FDF7BEFE1120A3
:104BF000FDF7B8FE642003F0A2FC2920FDF7B2FE09
:104C00003520FDF7AFFE0020FDF7AFFE5120FDF788
:104C1000A9FEFF20FDF7A9FE5320FDF7A3FE2C20DF
:104C2000FDF7A3FE5520FDF79DFE8220FDF79DFEBA
:104C30002C20FDF797FE02F0E9B8FE48808845F287
:104C4000105188427ED155214FF47040FDF799FEF6
:104C5000AA214FF20100FDF794FE52214FF202000B
:104C6000FDF78FFE08214FF20300FDF78AFE0121B8
:104C70004FF20400FDF785FE0D214FF43040FDF7A3
:104C800080FE0D214BF20100FDF77BFE0D214BF262
:104C90000200FDF776FE34214FF43640FDF771FE39
:104CA00034214BF20160FDF76CFE34214BF20260BF
:104CB000FDF767FE0D214FF43140FDF762FE0D2137
:104CC0004BF20110FDF75DFE0D214BF20210FDF7D6
:104CD00058FE34214FF43740FDF753FE34214BF298
:104CE0000170FDF74EFE34214BF20270FDF749FED4
:104CF00000214FF43240FDF744FE00214BF2012029
:104D0000FDF73FFE00214BF20220FDF73AFE242181
:104D10004FF43840FDF735FE24214BF60100FDF736
:104D200030FE24214BF60200FDF72BFE01214FF44B
:104D30003F40FDF726FE0F214FF43340FDF721FEE3
:104D40000F2100E0FEE34BF20130FDF71AFE0F21C8
:104D50004BF20230FDF715FE34214FF43940FDF7D8
:104D600010FE34214BF60110FDF70BFE34214BF6FB
:104D70000210FDF706FE08214FF43540FDF701FE55
:104D800008214BF20150FDF7FCFD08214BF20250C7
:104D9000FDF7F7FD03214FF44240FDF7F2FD24211A
:104DA0004FF43A40FDF7EDFD24214BF60120FDF7CD
:104DB000E8FD24214BF60220FDF7E3FD00214FF42E
:104DC0003C40FDF7DEFD78214BF60140FDF7D9FDB3
:104DD00000214BF60240FDF7D4FD00214FF43D4089
:104DE000FDF7CFFD78214BF60150FDF7CAFD0021FC
:104DF0004BF60250FDF7C5FD00214FF43E40FDF794
:104E0000C0FD64214BF60160FDF7BBFD00214FF4AE
:104E10005140FDF7B6FD33214DF20110FDF7B1FD14
:104E200000214DF20210FDF7ACFD34214DF20310CC
:104E3000FDF7A7FD00214DF20410FDF7A2FD3A2178
:104E40004DF20510FDF79DFD00214DF20610FDF716
:104E500098FD4A214DF20710FDF793FD00214DF218
:104E60000810FDF78EFD5C214DF20910FDF789FD5C
:104E700000214DF20A10FDF784FD81214DF20B1047
:104E8000FDF77FFD00214DF20C10FDF77AFDA62104
:104E90004DF20D10FDF775FD00214DF20E10FDF7DE
:104EA00070FDE5214DF20F10FDF76BFD01214DF274
:104EB0001010FDF766FD13214DF21110FDF761FD95
:104EC00001214DF21210FDF75CFD54214DF213103B
:104ED000FDF757FD01214DF21410FDF752FD82211F
:104EE0004DF21510FDF74DFD01214DF21610FDF7A5
:104EF00048FDCA214DF21710FDF743FD02214DF286
:104F00001810FDF73EFD00214DF21910FDF739FD97
:104F100002214DF21A10FDF734FD01214DF21B1054
:104F2000FDF72FFD02214DF21C10FDF72AFD342163
:104F30004DF21D10FDF725FD02214DF21E10FDF76B
:104F400020FD67214DF21F10FDF71BFD02214DF2E0
:104F50002010FDF716FD84214DF22110FDF711FD03
:104F600002214DF22210FDF70CFDA4214DF2231079
:104F7000FDF707FD02214DF22410FDF702FDB721D8
:104F80004DF22510FDF7FDFC02214DF22610FDF734
:104F9000F8FCCF214DF22710FDF7F3FC02214DF272
:104FA0002810FDF7EEFCDE214DF22910FDF7E9FC9B
:104FB00002214DF22A10FDF7E4FCF2214DF22B10F4
:104FC000FDF7DFFC02214DF22C10FDF7DAFCFE218B
:104FD0004DF22D10FDF7D5FC03214DF22E10FDF7FB
:104FE000D0FC10214DF22F10FDF7CBFC03214DF228
:104FF0003010FDF7C6FC33214DF23110FDF7C1FC36
:1050000003214DF23210FDF7BCFC6D214DF233103F
:10501000FDF7B7FC00214FF45240FDF7B2FC3321FD
:105020004DF20120FDF7ADFC00214DF20220FDF70D
:10503000A8FC01E0DC3A002034214DF20320FDF70A
:10504000A0FC00214DF20420FDF79BFC3A214DF21B
:105050000520FDF796FC00214DF20620FDF791FC9E
:105060004A214DF20720FDF78CFC00214DF208206B
:10507000FDF787FC5C214DF20920FDF782FC002141
:105080004DF20A20FDF77DFC81214DF20B20FDF74A
:1050900078FC00214DF20C20FDF773FCA6214DF2A7
:1050A0000D20FDF76EFC00214DF20E20FDF769FC8E
:1050B000E5214DF20F20FDF764FC01214DF2102097
:1050C000FDF75FFC13214DF21120FDF75AFC012181
:1050D0004DF21220FDF755FC54214DF21320FDF73F
:1050E00050FC01214DF21420FDF74BFC82214DF2C2
:1050F0001520FDF746FC01214DF21620FDF741FC7D
:10510000CA214DF21720FDF73CFC02214DF2182078
:10511000FDF737FC00214DF21920FDF732FC02218A
:105120004DF21A20FDF72DFC01214DF21B20FDF759
:1051300028FC02214DF21C20FDF723FC34214DF206
:105140001D20FDF71EFC02214DF21E20FDF719FC6B
:1051500067214DF21F20FDF714FC02214DF22020A3
:10516000FDF70FFC84214DF22120FDF70AFC0221FE
:105170004DF22220FDF705FCA4214DF22320FDF77E
:1051800000FC02214DF22420FDF7FBFBB7214DF27C
:105190002520FDF7F6FB02214DF22620FDF7F1FB5D
:1051A000CF214DF22720FDF7ECFB02214DF2282004
:1051B000FDF7E7FBDE214DF22920FDF7E2FB02219E
:1051C0004DF22A20FDF7DDFBF2214DF22B20FDF7F9
:1051D000D8FB02214DF22C20FDF7D3FBFE214DF22E
:1051E0002D20FDF7CEFB03214DF22E20FDF7C9FB4C
:1051F00010214DF22F20FDF7C4FB03214DF230208A
:10520000FDF7BFFB33214DF23120FDF7BAFB03213F
:105210004DF23220FDF7B5FB6D214DF23320FDF745
:10522000B0FB00214FF45340FDF7ABFB33214DF2AF
:105230000130FDF7A6FB00214DF20230FDF7A1FB86
:1052400034214DF20330FDF79CFB00214DF2043078
:10525000FDF797FB3A214DF20530FDF792FB002157
:105260004DF20630FDF78DFB4A214DF20730FDF778
:1052700088FB00214DF20830FDF783FB5C214DF2E5
:105280000930FDF77EFB00214DF20A30FDF779FB76
:1052900081214DF20B30FDF774FB00214DF20C30F3
:1052A000FDF76FFBA6214DF20D30FDF76AFB0021E3
:1052B0004DF20E30FDF765FBE5214DF20F30FDF7A5
:1052C00060FB01214DF21030FDF75BFB13214DF225
:1052D0001130FDF756FB01214DF21230FDF751FB65
:1052E00054214DF21330FDF74CFB01214DF21430E7
:1052F000FDF747FB82214DF21530FDF742FB0121FE
:105300004DF21630FDF73DFBCA214DF21730FDF787
:1053100038FB02214DF21830FDF733FB00214DF22E
:105320001930FDF72EFB02214DF21A30FDF729FB53
:1053300001214DF21B30FDF724FB02214DF21C3000
:10534000FDF71FFB34214DF21D30FDF71AFB022142
:105350004DF21E30FDF715FB67214DF21F30FDF7B2
:1053600010FB02214DF22030FDF70BFB84214DF2A2
:105370002130FDF706FB02214DF22230FDF701FB43
:10538000A4214DF22330FDF7FCFA02214DF2243026
:10539000FDF7F7FAB7214DF22530FDF7F2FA0221B9
:1053A0004DF22630FDF7EDFACF214DF22730FDF713
:1053B000E8FA02214DF22830FDF7E3FADE214DF242
:1053C0002930FDF7DEFA02214DF22A30FDF7D9FA35
:1053D000F2214DF22B30FDF7D4FA02214DF22C30A0
:1053E000FDF7CFFAFE214DF22D30FDF7CAFA032169
:1053F0004DF22E30FDF7C5FA10214DF22F30FDF79A
:10540000C0FA03214DF23030FDF7BBFA33214DF2E3
:105410003130FDF7B6FA03214DF23230FDF7B1FA23
:105420006D214DF23330FDF7ACFA00214FF45440BA
:10543000FDF7A7FA33214DF20140FDF7A2FA002152
:105440004DF20240FDF79DFA34214DF20340FDF785
:1054500098FA00214DF20440FDF793FA3A214DF2FB
:105460000540FDF78EFA00214DF20640FDF789FA5E
:105470004A214DF20740FDF784FA00214DF2084021
:10548000FDF77FFA5C214DF20940FDF77AFA002121
:105490004DF20A40FDF775FA81214DF20B40FDF700
:1054A00070FA00214DF20C40FDF76BFAA6214DF287
:1054B0000D40FDF766FA00214DF20E40FDF761FA4E
:1054C000E5214DF20F40FDF75CFA01214DF210404D
:1054D000FDF757FA13214DF21140FDF752FA012161
:1054E0004DF21240FDF74DFA54214DF21340FDF7F5
:1054F00048FA01214DF21440FDF743FA82214DF2A2
:105500001540FDF73EFA01214DF21640FDF739FA3C
:10551000CA214DF21740FDF734FA02214DF218402E
:10552000FDF72FFA00214DF21940FDF72AFA02216A
:105530004DF21A40FDF725FA01214DF21B40FDF70F
:1055400020FA00E004E302214DF21C40FDF719FAB5
:1055500034214DF21D40FDF714FA02214DF21E4098
:10556000FDF70FFA67214DF21F40FDF70AFA0221FD
:105570004DF22040FDF705FA84214DF22140FDF760
:1055800000FA02214DF22240FDF7FBF9A4214DF271
:105590002340FDF7F6F902214DF22440FDF7F1F921
:1055A000B7214DF22540FDF7ECF902214DF22640DE
:1055B000FDF7E7F9CF214DF22740FDF7E2F902218F
:1055C0004DF22840FDF7DDF9DE214DF22940FDF7CF
:1055D000D8F902214DF22A40FDF7D3F9F2214DF21C
:1055E0002B40FDF7CEF902214DF22C40FDF7C9F911
:1055F000FE214DF22D40FDF7C4F903214DF22E405E
:10560000FDF7BFF910214DF22F40FDF7BAF9032144
:105610004DF23040FDF7B5F933214DF23140FDF741
:10562000B0F903214DF23240FDF7ABF96D214DF297
:105630003340FDF7A6F900214FF45540FDF7A1F9DD
:1056400033214DF20150FDF79CF900214DF202503B
:10565000FDF797F934214DF20350FDF792F900213F
:105660004DF20450FDF78DF93A214DF20550FDF74A
:1056700088F900214DF20650FDF783F94A214DF2D9
:105680000750FDF77EF900214DF20850FDF779F93A
:105690005C214DF20950FDF774F900214DF20A50DA
:1056A000FDF76FF981214DF20B50FDF76AF90021EA
:1056B0004DF20C50FDF765F9A6214DF20D50FDF7A6
:1056C00060F900214DF20E50FDF75BF9E5214DF236
:1056D0000F50FDF756F901214DF21050FDF751F929
:1056E00013214DF21150FDF74CF901214DF21250EA
:1056F000FDF747F954214DF21350FDF742F901210E
:105700004DF21450FDF73DF982214DF21550FDF791
:1057100038F901214DF21650FDF733F9CA214DF247
:105720001750FDF72EF902214DF21850FDF729F917
:1057300000214DF21950FDF724F902214DF21A50C3
:10574000FDF71FF901214DF21B50FDF71AF9022157
:105750004DF21C50FDF715F934214DF21D50FDF7A7
:1057600010F902214DF21E50FDF70BF967214DF2A1
:105770001F50FDF706F902214DF22050FDF701F907
:1057800084214DF22150FDF7FCF802214DF2225008
:10579000FDF7F7F8A4214DF22350FDF7F2F80221AE
:1057A0004DF22450FDF7EDF8B7214DF22550FDF7ED
:1057B000E8F802214DF22650FDF7E3F8CF214DF233
:1057C0002750FDF7DEF802214DF22850FDF7D9F8F9
:1057D000DE214DF22950FDF7D4F802214DF22A5076
:1057E000FDF7CFF8F2214DF22B50FDF7CAF8022158
:1057F0004DF22C50FDF7C5F8FE214DF22D50FDF76E
:10580000C0F803214DF22E50FDF7BBF810214DF2E8
:105810002F50FDF7B6F803214DF23050FDF7B1F8E7
:1058200033214DF23150FDF7ACF803214DF23250E7
:10583000FDF7A7F86D214DF23350FDF7A2F80021D6
:105840004FF45640FDF79DF833214DF20160FDF70E
:1058500098F800214DF20260FDF793F834214DF2E3
:105860000360FDF78EF800214DF20460FDF789F822
:105870003A214DF20560FDF784F800214DF20660F3
:10588000FDF77FF84A214DF20760FDF77AF8002115
:105890004DF20860FDF775F85C214DF20960FDF7E7
:1058A00070F800214DF20A60FDF76BF881214DF28E
:1058B0000B60FDF766F800214DF20C60FDF761F812
:1058C000A6214DF20D60FDF75CF800214DF20E604F
:1058D000FDF757F8E5214DF20F60FDF752F8012171
:1058E0004DF21060FDF74DF813214DF21160FDF7F8
:1058F00048F801214DF21260FDF743F854214DF2B2
:105900001360FDF73EF801214DF21460FDF739F800
:1059100082214DF21560FDF734F801214DF2166039
:10592000FDF72FF8CA214DF21760FDF72AF8022182
:105930004DF21860FDF725F800214DF21960FDF7D2
:1059400020F802214DF21A60FDF71BF801214DF2FB
:105950001B60FDF716F802214DF21C60FDF711F8EF
:1059600034214DF21D60FDF70CF802214DF21E604E
:10597000FDF707F867214DF21F60FDF702F80221DD
:105980004DF22060FCF7FDFF84214DF22160FCF711
:10599000F8FF02214DF22260FCF7F3FFA4214DF243
:1059A0002360FCF7EEFF02214DF22460FCF7E9FFD3
:1059B000B7214DF22560FCF7E4FF02214DF226608D
:1059C000FCF7DFFFCF214DF22760FCF7DAFF022161
:1059D0004DF22860FCF7D5FFDE214DF22960FCF77F
:1059E000D0FF02214DF22A60FCF7CBFFF2214DF2ED
:1059F0002B60FCF7C6FF02214DF22C60FCF7C1FFC3
:105A0000FE214DF22D60FCF7BCFF03214DF22E600C
:105A1000FCF7B7FF10214DF22F60FCF7B2FF032116
:105A20004DF23060FCF7ADFF33214DF23160FCF7F1
:105A3000A8FF03214DF23260FCF7A3FF6D214DF268
:105A40003360FCF79EFF55214FF47040FCF799FF3F
:105A5000AA214FF20100FCF794FF52214FF20200FD
:105A6000FCF78FFF08214FF20300FCF78AFF0021AB
:105A70004FF20400FCF785FFCC214FF43140FCF7D6
:105A800080FF00214BF20110FCF77BFF05214FF452
:105A90003640FCF776FF70214FF43740FCF771FF7A
:105AA00070214BF20170FCF76CFF01214FF438407C
:105AB000FCF767FF03214BF60100FCF762FF0321AF
:105AC0004BF60200FCF75DFF03214BF60300FCF7E9
:105AD00058FF02214FF43C40FCF753FF00214BF6E6
